{"abi":[{"type":"constructor","inputs":[{"name":"initialAdmin","type":"address","internalType":"address"},{"name":"_rimowaSigner","type":"address","internalType":"address"},{"name":"_passportContract","type":"address","internalType":"address"}],"stateMutability":"nonpayable"},{"type":"function","name":"CHIP_REGISTRAR_ROLE","inputs":[],"outputs":[{"name":"","type":"bytes32","internalType":"bytes32"}],"stateMutability":"view"},{"type":"function","name":"DEFAULT_ADMIN_ROLE","inputs":[],"outputs":[{"name":"","type":"bytes32","internalType":"bytes32"}],"stateMutability":"view"},{"type":"function","name":"PAUSER_ROLE","inputs":[],"outputs":[{"name":"","type":"bytes32","internalType":"bytes32"}],"stateMutability":"view"},{"type":"function","name":"SIGNER_ROLE","inputs":[],"outputs":[{"name":"","type":"bytes32","internalType":"bytes32"}],"stateMutability":"view"},{"type":"function","name":"buildMessageHash","inputs":[{"name":"uid","type":"bytes16","internalType":"bytes16"},{"name":"counter","type":"uint32","internalType":"uint32"},{"name":"passportTokenId","type":"uint256","internalType":"uint256"}],"outputs":[{"name":"","type":"bytes32","internalType":"bytes32"}],"stateMutability":"view"},{"type":"function","name":"deactivateChip","inputs":[{"name":"uid","type":"bytes16","internalType":"bytes16"},{"name":"reason","type":"string","internalType":"string"}],"outputs":[],"stateMutability":"nonpayable"},{"type":"function","name":"getChipData","inputs":[{"name":"uid","type":"bytes16","internalType":"bytes16"}],"outputs":[{"name":"","type":"tuple","internalType":"struct RimowaNFCVerifier.NFCChip","components":[{"name":"uid","type":"bytes16","internalType":"bytes16"},{"name":"passportTokenId","type":"uint256","internalType":"uint256"},{"name":"lastValidCounter","type":"uint32","internalType":"uint32"},{"name":"active","type":"bool","internalType":"bool"},{"name":"registeredAt","type":"uint256","internalType":"uint256"}]}],"stateMutability":"view"},{"type":"function","name":"getRoleAdmin","inputs":[{"name":"role","type":"bytes32","internalType":"bytes32"}],"outputs":[{"name":"","type":"bytes32","internalType":"bytes32"}],"stateMutability":"view"},{"type":"function","name":"grantRole","inputs":[{"name":"role","type":"bytes32","internalType":"bytes32"},{"name":"account","type":"address","internalType":"address"}],"outputs":[],"stateMutability":"nonpayable"},{"type":"function","name":"hasRole","inputs":[{"name":"role","type":"bytes32","internalType":"bytes32"},{"name":"account","type":"address","internalType":"address"}],"outputs":[{"name":"","type":"bool","internalType":"bool"}],"stateMutability":"view"},{"type":"function","name":"passportContract","inputs":[],"outputs":[{"name":"","type":"address","internalType":"address"}],"stateMutability":"view"},{"type":"function","name":"pause","inputs":[],"outputs":[],"stateMutability":"nonpayable"},{"type":"function","name":"paused","inputs":[],"outputs":[{"name":"","type":"bool","internalType":"bool"}],"stateMutability":"view"},{"type":"function","name":"previewVerification","inputs":[{"name":"uid","type":"bytes16","internalType":"bytes16"},{"name":"counter","type":"uint32","internalType":"uint32"},{"name":"signature","type":"bytes","internalType":"bytes"}],"outputs":[{"name":"isValid","type":"bool","internalType":"bool"},{"name":"tokenId","type":"uint256","internalType":"uint256"},{"name":"reason","type":"string","internalType":"string"}],"stateMutability":"view"},{"type":"function","name":"registerChip","inputs":[{"name":"uid","type":"bytes16","internalType":"bytes16"},{"name":"passportTokenId","type":"uint256","internalType":"uint256"}],"outputs":[],"stateMutability":"nonpayable"},{"type":"function","name":"renounceRole","inputs":[{"name":"role","type":"bytes32","internalType":"bytes32"},{"name":"callerConfirmation","type":"address","internalType":"address"}],"outputs":[],"stateMutability":"nonpayable"},{"type":"function","name":"revokeRole","inputs":[{"name":"role","type":"bytes32","internalType":"bytes32"},{"name":"account","type":"address","internalType":"address"}],"outputs":[],"stateMutability":"nonpayable"},{"type":"function","name":"rimowaSigner","inputs":[],"outputs":[{"name":"","type":"address","internalType":"address"}],"stateMutability":"view"},{"type":"function","name":"setPassportContract","inputs":[{"name":"_passportContract","type":"address","internalType":"address"}],"outputs":[],"stateMutability":"nonpayable"},{"type":"function","name":"supportsInterface","inputs":[{"name":"interfaceId","type":"bytes4","internalType":"bytes4"}],"outputs":[{"name":"","type":"bool","internalType":"bool"}],"stateMutability":"view"},{"type":"function","name":"totalVerifications","inputs":[],"outputs":[{"name":"","type":"uint256","internalType":"uint256"}],"stateMutability":"view"},{"type":"function","name":"unpause","inputs":[],"outputs":[],"stateMutability":"nonpayable"},{"type":"function","name":"updateSigner","inputs":[{"name":"newSigner","type":"address","internalType":"address"}],"outputs":[],"stateMutability":"nonpayable"},{"type":"function","name":"verifyNFC","inputs":[{"name":"uid","type":"bytes16","internalType":"bytes16"},{"name":"counter","type":"uint32","internalType":"uint32"},{"name":"signature","type":"bytes","internalType":"bytes"}],"outputs":[{"name":"tokenId","type":"uint256","internalType":"uint256"}],"stateMutability":"nonpayable"},{"type":"event","name":"ChipDeactivated","inputs":[{"name":"uid","type":"bytes16","indexed":true,"internalType":"bytes16"},{"name":"reason","type":"string","indexed":false,"internalType":"string"}],"anonymous":false},{"type":"event","name":"ChipRegistered","inputs":[{"name":"uid","type":"bytes16","indexed":true,"internalType":"bytes16"},{"name":"passportTokenId","type":"uint256","indexed":true,"internalType":"uint256"},{"name":"timestamp","type":"uint256","indexed":false,"internalType":"uint256"}],"anonymous":false},{"type":"event","name":"NFCVerificationFailed","inputs":[{"name":"uid","type":"bytes16","indexed":true,"internalType":"bytes16"},{"name":"counter","type":"uint32","indexed":false,"internalType":"uint32"},{"name":"attemptedBy","type":"address","indexed":true,"internalType":"address"},{"name":"reason","type":"string","indexed":false,"internalType":"string"}],"anonymous":false},{"type":"event","name":"NFCVerified","inputs":[{"name":"uid","type":"bytes16","indexed":true,"internalType":"bytes16"},{"name":"passportTokenId","type":"uint256","indexed":true,"internalType":"uint256"},{"name":"counter","type":"uint32","indexed":false,"internalType":"uint32"},{"name":"verifiedBy","type":"address","indexed":true,"internalType":"address"},{"name":"timestamp","type":"uint256","indexed":false,"internalType":"uint256"}],"anonymous":false},{"type":"event","name":"PassportContractUpdated","inputs":[{"name":"newContract","type":"address","indexed":true,"internalType":"address"}],"anonymous":false},{"type":"event","name":"Paused","inputs":[{"name":"account","type":"address","indexed":false,"internalType":"address"}],"anonymous":false},{"type":"event","name":"RoleAdminChanged","inputs":[{"name":"role","type":"bytes32","indexed":true,"internalType":"bytes32"},{"name":"previousAdminRole","type":"bytes32","indexed":true,"internalType":"bytes32"},{"name":"newAdminRole","type":"bytes32","indexed":true,"internalType":"bytes32"}],"anonymous":false},{"type":"event","name":"RoleGranted","inputs":[{"name":"role","type":"bytes32","indexed":true,"internalType":"bytes32"},{"name":"account","type":"address","indexed":true,"internalType":"address"},{"name":"sender","type":"address","indexed":true,"internalType":"address"}],"anonymous":false},{"type":"event","name":"RoleRevoked","inputs":[{"name":"role","type":"bytes32","indexed":true,"internalType":"bytes32"},{"name":"account","type":"address","indexed":true,"internalType":"address"},{"name":"sender","type":"address","indexed":true,"internalType":"address"}],"anonymous":false},{"type":"event","name":"SignerUpdated","inputs":[{"name":"oldSigner","type":"address","indexed":true,"internalType":"address"},{"name":"newSigner","type":"address","indexed":true,"internalType":"address"}],"anonymous":false},{"type":"event","name":"Unpaused","inputs":[{"name":"account","type":"address","indexed":false,"internalType":"address"}],"anonymous":false},{"type":"error","name":"AccessControlBadConfirmation","inputs":[]},{"type":"error","name":"AccessControlUnauthorizedAccount","inputs":[{"name":"account","type":"address","internalType":"address"},{"name":"neededRole","type":"bytes32","internalType":"bytes32"}]},{"type":"error","name":"ECDSAInvalidSignature","inputs":[]},{"type":"error","name":"ECDSAInvalidSignatureLength","inputs":[{"name":"length","type":"uint256","internalType":"uint256"}]},{"type":"error","name":"ECDSAInvalidSignatureS","inputs":[{"name":"s","type":"bytes32","internalType":"bytes32"}]},{"type":"error","name":"EnforcedPause","inputs":[]},{"type":"error","name":"ExpectedPause","inputs":[]},{"type":"error","name":"ReentrancyGuardReentrantCall","inputs":[]}],"bytecode":{"object":"0x608060405234801562000010575f80fd5b5060405162001cd738038062001cd78339810160408190526200003391620002bc565b60017f9b779b17422d0df92223018b32b4d1fa46e071723d6817e2486d003becc55f00556001600160a01b038316620000b35760405162461bcd60e51b815260206004820152601d60248201527f52696d6f77614e464356657269666965723a207a65726f2061646d696e00000060448201526064015b60405180910390fd5b6001600160a01b0382166200010b5760405162461bcd60e51b815260206004820152601e60248201527f52696d6f77614e464356657269666965723a207a65726f207369676e657200006044820152606401620000aa565b60018054610100600160a81b0319166101006001600160a01b03851602179055620001375f84620001f4565b50620001647fe2f4eaae4a9751e85a3e4a7b9587827a877f29914755229b07a7b2da98285f7083620001f4565b50620001917f2db754bab9113ac079d3697cdeed66df38e75ffae018a5d99c4293230b40f19e84620001f4565b50620001be7f65d7a28e3265b37a6474929f336521b332c1681b933f6cb9f3376673440d862a84620001f4565b506001600160a01b03811615620001eb57600280546001600160a01b0319166001600160a01b0383161790555b50505062000303565b5f828152602081815260408083206001600160a01b038516845290915281205460ff1662000297575f838152602081815260408083206001600160a01b03861684529091529020805460ff191660011790556200024e3390565b6001600160a01b0316826001600160a01b0316847f2f8788117e7eff1d82e926ec794901d17c78024a50270940304540a733656f0d60405160405180910390a45060016200029a565b505f5b92915050565b80516001600160a01b0381168114620002b7575f80fd5b919050565b5f805f60608486031215620002cf575f80fd5b620002da84620002a0565b9250620002ea60208501620002a0565b9150620002fa60408501620002a0565b90509250925092565b6119c680620003115f395ff3fe608060405234801561000f575f80fd5b5060043610610153575f3560e01c80638456cb59116100bf578063ab9027b011610079578063ab9027b01461035a578063ac90c1401461036d578063d547741f14610376578063e3e8bb7114610389578063e63ab1e91461039c578063e950e833146103c3575f80fd5b80638456cb591461029c57806391d14854146102a45780639d2dd8a4146102b7578063a1ebf35d14610319578063a217fddf14610340578063a7ecd37e14610347575f80fd5b80633e5f2220116101105780633e5f22201461020c5780633f4ba83a1461021f578063520eacce146102275780635a9ce9761461023a5780635c975abb1461026a5780638146d56b14610275575f80fd5b806301ffc9a7146101575780630d39dda61461017f578063248a9ca3146101945780632f2ff15d146101c457806336568abe146101d75780633b6f5acb146101ea575b5f80fd5b61016a61016536600461163e565b6103d6565b60405190151581526020015b60405180910390f35b61019261018d366004611687565b6103e6565b005b6101b66101a23660046116a0565b5f9081526020819052604090206001015490565b604051908152602001610176565b6101926101d23660046116b7565b610495565b6101926101e53660046116b7565b6104bf565b6101fd6101f8366004611750565b6104f7565b604051610176939291906117ad565b61019261021a36600461180a565b610763565b610192610872565b6101b6610235366004611859565b6108a7565b6001546102529061010090046001600160a01b031681565b6040516001600160a01b039091168152602001610176565b60015460ff1661016a565b6101b67f2db754bab9113ac079d3697cdeed66df38e75ffae018a5d99c4293230b40f19e81565b6101926108de565b61016a6102b23660046116b7565b610910565b6102ca6102c5366004611892565b610938565b604051610176919081516001600160801b03191681526020808301519082015260408083015163ffffffff16908201526060808301511515908201526080918201519181019190915260a00190565b6101b67fe2f4eaae4a9751e85a3e4a7b9587827a877f29914755229b07a7b2da98285f7081565b6101b65f81565b610192610355366004611687565b610a47565b600254610252906001600160a01b031681565b6101b660055481565b6101926103843660046116b7565b610b66565b6101926103973660046118ab565b610b8a565b6101b67f65d7a28e3265b37a6474929f336521b332c1681b933f6cb9f3376673440d862a81565b6101b66103d1366004611750565b610dc9565b5f6103e082611198565b92915050565b5f6103f0816111cc565b6001600160a01b03821661044b5760405162461bcd60e51b815260206004820152601f60248201527f52696d6f77614e464356657269666965723a207a65726f20616464726573730060448201526064015b60405180910390fd5b600280546001600160a01b0319166001600160a01b0384169081179091556040517f1fc7df4ab9730815806bf7e8f123905dd8176e860fbb3e6ef2c7fd1cf5229d3a905f90a25050565b5f828152602081905260409020600101546104af816111cc565b6104b983836111d6565b50505050565b6001600160a01b03811633146104e85760405163334bd91960e11b815260040160405180910390fd5b6104f28282611265565b505050565b6001600160801b031984165f90815260036020526040812060028101548291606091640100000000900460ff1661055b57505060408051808201909152600f81526e43686970206e6f742061637469766560881b60208201525f9250829150610759565b600281015463ffffffff908116908816116105a357505060408051808201909152600f81526e436f756e74657220746f6f206c6f7760881b60208201525f9250829150610759565b5f88886040516020016105b79291906118d3565b60408051601f1981840301815291815281516020928301205f818152600490935291205490915060ff1615610620575f8060405180604001604052806012815260200171139bdb98d948185b1c9958591e481d5cd95960721b8152509450945094505050610759565b5f898984600101544660405160200161063c94939291906118fa565b6040516020818303038152906040528051906020012090505f61068b827f19457468657265756d205369676e6564204d6573736167653a0a3332000000005f908152601c91909152603c902090565b90505f6106cf8a8a8080601f0160208091040260200160405190810160405280939291908181526020018383808284375f9201919091525086939250506112ce9050565b6001549091506001600160a01b038083166101009092041614610728575f8060405180604001604052806011815260200170496e76616c6964207369676e617475726560781b8152509750975097505050505050610759565b600185600101546040518060400160405280600581526020016415985b1a5960da1b81525097509750975050505050505b9450945094915050565b7f2db754bab9113ac079d3697cdeed66df38e75ffae018a5d99c4293230b40f19e61078d816111cc565b6001600160801b031984165f90815260036020526040902060020154640100000000900460ff1661080b5760405162461bcd60e51b815260206004820152602260248201527f52696d6f77614e464356657269666965723a2063686970206e6f742061637469604482015261766560f01b6064820152608401610442565b6001600160801b031984165f8181526003602052604090819020600201805464ff0000000019169055517fe7acb13287981046900e4d0540e0b50739c14eb14feca0d694a6ef55d0987ed190610864908690869061192e565b60405180910390a250505050565b7f65d7a28e3265b37a6474929f336521b332c1681b933f6cb9f3376673440d862a61089c816111cc565b6108a46112f6565b50565b5f838383466040516020016108bf94939291906118fa565b6040516020818303038152906040528051906020012090509392505050565b7f65d7a28e3265b37a6474929f336521b332c1681b933f6cb9f3376673440d862a610908816111cc565b6108a4611348565b5f918252602082815260408084206001600160a01b0393909316845291905290205460ff1690565b6040805160a0810182525f808252602082018190529181018290526060810182905260808101919091526001600160801b031982165f9081526003602081905260408220015490036109d65760405162461bcd60e51b815260206004820152602160248201527f52696d6f77614e464356657269666965723a2063686970206e6f7420666f756e6044820152601960fa1b6064820152608401610442565b506001600160801b03199081165f90815260036020818152604092839020835160a0810185528154608090811b9096168152600182015492810192909252600281015463ffffffff81169483019490945264010000000090930460ff16151560608201529101549181019190915290565b5f610a51816111cc565b6001600160a01b038216610aa75760405162461bcd60e51b815260206004820152601f60248201527f52696d6f77614e464356657269666965723a207a65726f2061646472657373006044820152606401610442565b60015461010090046001600160a01b0316610ae27fe2f4eaae4a9751e85a3e4a7b9587827a877f29914755229b07a7b2da98285f7082611265565b50610b0d7fe2f4eaae4a9751e85a3e4a7b9587827a877f29914755229b07a7b2da98285f70846111d6565b5060018054610100600160a81b0319166101006001600160a01b0386811691820292909217909255604051908316907f2d025324f0a785e8c12d0a0d91a9caa49df4ef20ff87e0df7213a1d4f3157beb905f90a3505050565b5f82815260208190526040902060010154610b80816111cc565b6104b98383611265565b7f2db754bab9113ac079d3697cdeed66df38e75ffae018a5d99c4293230b40f19e610bb4816111cc565b610bbc611383565b6001600160801b03198316610c135760405162461bcd60e51b815260206004820152601b60248201527f52696d6f77614e464356657269666965723a207a65726f2055494400000000006044820152606401610442565b6001600160801b031983165f90815260036020526040902060020154640100000000900460ff1615610c9a5760405162461bcd60e51b815260206004820152602a60248201527f52696d6f77614e464356657269666965723a206368697020616c7265616479206044820152691c9959da5cdd195c995960b21b6064820152608401610442565b5f8211610cf85760405162461bcd60e51b815260206004820152602660248201527f52696d6f77614e464356657269666965723a20696e76616c69642070617373706044820152651bdc9d08125160d21b6064820152608401610442565b6040805160a0810182526001600160801b031980861680835260208084018781525f858701818152600160608801818152426080808b01828152898752600398899052958c90209a518b54911c991698909817895593519088015551600287018054935115156401000000000264ffffffffff1990941663ffffffff92909216919091179290921790915551930192909255915184927f331543ee424a038763fb82bdb32bfd5ca7e7b446e7c7608d451acb4dc3de40b791610dbc91815260200190565b60405180910390a3505050565b5f610dd2611383565b610dda6113a9565b6001600160801b031985165f9081526003602052604090206002810154640100000000900460ff16610e6d576040805163ffffffff8716815260208101829052600f918101919091526e43686970206e6f742061637469766560881b606082015233906001600160801b03198816905f80516020611971833981519152906080015b60405180910390a35f915050611167565b600281015463ffffffff90811690861611610ef6576040805163ffffffff87168152602081018290526023918101919091527f436f756e746572206e6f742067726561746572207468616e206c6173742076616060820152621b1a5960ea1b608082015233906001600160801b03198816905f805160206119718339815191529060a001610e5c565b5f8686604051602001610f0a9291906118d3565b60408051601f1981840301815291815281516020928301205f818152600490935291205490915060ff1615610f9f576040805163ffffffff881681526020810182905260128183015271139bdb98d948185b1c9958591e481d5cd95960721b6060820152905133916001600160801b03198a16915f805160206119718339815191529181900360800190a35f92505050611167565b5f8787846001015446604051602001610fbb94939291906118fa565b6040516020818303038152906040528051906020012090505f61100a827f19457468657265756d205369676e6564204d6573736167653a0a3332000000005f908152601c91909152603c902090565b90505f61104e88888080601f0160208091040260200160405190810160405280939291908181526020018383808284375f9201919091525086939250506112ce9050565b6001549091506001600160a01b0380831661010090920416146110d3576040805163ffffffff8b1681526020810182905260118183015270496e76616c6964207369676e617475726560781b6060820152905133916001600160801b03198d16915f805160206119718339815191529181900360800190a35f95505050505050611167565b60028501805463ffffffff191663ffffffff8b169081179091555f85815260046020908152604091829020805460ff191660019081179091556005805482019055880154825193845242918401919091529750339188916001600160801b03198e16917f5ca78858bc37db576e0d40246df942c15b67c676b9d68da27bcd1d54d40fcc53910160405180910390a450505050505b61119060017f9b779b17422d0df92223018b32b4d1fa46e071723d6817e2486d003becc55f0055565b949350505050565b5f6001600160e01b03198216637965db0b60e01b14806103e057506301ffc9a760e01b6001600160e01b03198316146103e0565b6108a481336113d7565b5f6111e18383610910565b61125e575f838152602081815260408083206001600160a01b03861684529091529020805460ff191660011790556112163390565b6001600160a01b0316826001600160a01b0316847f2f8788117e7eff1d82e926ec794901d17c78024a50270940304540a733656f0d60405160405180910390a45060016103e0565b505f6103e0565b5f6112708383610910565b1561125e575f838152602081815260408083206001600160a01b0386168085529252808320805460ff1916905551339286917ff6391f5c32d9c69d2a47ea670b442974b53935d1edc7fd64eb21e047a839171b9190a45060016103e0565b5f805f806112dc8686611414565b9250925092506112ec828261145d565b5090949350505050565b6112fe611515565b6001805460ff191690557f5db9ee0a495bf2e6ff9c91a7834c1ba4fdd244a5e8aa4e537bd38aeae4b073aa335b6040516001600160a01b03909116815260200160405180910390a1565b611350611383565b6001805460ff1916811790557f62e78cea01bee320cd4e420270b5ea74000d11b0c9f74754ebdbfc544b05a2583361132b565b60015460ff16156113a75760405163d93c066560e01b815260040160405180910390fd5b565b6113b1611538565b60027f9b779b17422d0df92223018b32b4d1fa46e071723d6817e2486d003becc55f0055565b6113e18282610910565b6114105760405163e2517d3f60e01b81526001600160a01b038216600482015260248101839052604401610442565b5050565b5f805f835160410361144b576020840151604085015160608601515f1a61143d8882858561157a565b955095509550505050611456565b505081515f91506002905b9250925092565b5f8260038111156114705761147061195c565b03611479575050565b600182600381111561148d5761148d61195c565b036114ab5760405163f645eedf60e01b815260040160405180910390fd5b60028260038111156114bf576114bf61195c565b036114e05760405163fce698f760e01b815260048101829052602401610442565b60038260038111156114f4576114f461195c565b03611410576040516335e2f38360e21b815260048101829052602401610442565b60015460ff166113a757604051638dfc202b60e01b815260040160405180910390fd5b7f9b779b17422d0df92223018b32b4d1fa46e071723d6817e2486d003becc55f00546002036113a757604051633ee5aeb560e01b815260040160405180910390fd5b5f80807f7fffffffffffffffffffffffffffffff5d576e7357a4501ddfe92f46681b20a08411156115b357505f91506003905082610759565b604080515f808252602082018084528a905260ff891692820192909252606081018790526080810186905260019060a0016020604051602081039080840390855afa158015611604573d5f803e3d5ffd5b5050604051601f1901519150506001600160a01b03811661162f57505f925060019150829050610759565b975f9750879650945050505050565b5f6020828403121561164e575f80fd5b81356001600160e01b031981168114611665575f80fd5b9392505050565b80356001600160a01b0381168114611682575f80fd5b919050565b5f60208284031215611697575f80fd5b6116658261166c565b5f602082840312156116b0575f80fd5b5035919050565b5f80604083850312156116c8575f80fd5b823591506116d86020840161166c565b90509250929050565b80356001600160801b031981168114611682575f80fd5b803563ffffffff81168114611682575f80fd5b5f8083601f84011261171b575f80fd5b50813567ffffffffffffffff811115611732575f80fd5b602083019150836020828501011115611749575f80fd5b9250929050565b5f805f8060608587031215611763575f80fd5b61176c856116e1565b935061177a602086016116f8565b9250604085013567ffffffffffffffff811115611795575f80fd5b6117a18782880161170b565b95989497509550505050565b83151581525f60208460208401526060604084015283518060608501525f5b818110156117e8578581018301518582016080015282016117cc565b505f608082860101526080601f19601f83011685010192505050949350505050565b5f805f6040848603121561181c575f80fd5b611825846116e1565b9250602084013567ffffffffffffffff811115611840575f80fd5b61184c8682870161170b565b9497909650939450505050565b5f805f6060848603121561186b575f80fd5b611874846116e1565b9250611882602085016116f8565b9150604084013590509250925092565b5f602082840312156118a2575f80fd5b611665826116e1565b5f80604083850312156118bc575f80fd5b6118c5836116e1565b946020939093013593505050565b6001600160801b031992909216825260e01b6001600160e01b031916601082015260140190565b6001600160801b031994909416845260e09290921b6001600160e01b03191660108401526014830152603482015260540190565b60208152816020820152818360408301375f818301604090810191909152601f909201601f19160101919050565b634e487b7160e01b5f52602160045260245ffdfe8a16992d6ac64714aa08dfe4ea41cbcb36ca6e59dd86906b63bf02a46055e3fea26469706673582212206ecd37c949784c99fdec2d66cf4111affcf97714cf650e41a3197a83c6dc7a7a64736f6c63430008180033","linkReferences":{}},"methodIdentifiers":{"CHIP_REGISTRAR_ROLE()":"8146d56b","DEFAULT_ADMIN_ROLE()":"a217fddf","PAUSER_ROLE()":"e63ab1e9","SIGNER_ROLE()":"a1ebf35d","buildMessageHash(bytes16,uint32,uint256)":"520eacce","deactivateChip(bytes16,string)":"3e5f2220","getChipData(bytes16)":"9d2dd8a4","getRoleAdmin(bytes32)":"248a9ca3","grantRole(bytes32,address)":"2f2ff15d","hasRole(bytes32,address)":"91d14854","passportContract()":"ab9027b0","pause()":"8456cb59","paused()":"5c975abb","previewVerification(bytes16,uint32,bytes)":"3b6f5acb","registerChip(bytes16,uint256)":"e3e8bb71","renounceRole(bytes32,address)":"36568abe","revokeRole(bytes32,address)":"d547741f","rimowaSigner()":"5a9ce976","setPassportContract(address)":"0d39dda6","supportsInterface(bytes4)":"01ffc9a7","totalVerifications()":"ac90c140","unpause()":"3f4ba83a","updateSigner(address)":"a7ecd37e","verifyNFC(bytes16,uint32,bytes)":"e950e833"},"id":61}