{"abi":[{"type":"constructor","inputs":[{"name":"initialAdmin","type":"address","internalType":"address"},{"name":"royaltyReceiver","type":"address","internalType":"address"},{"name":"royaltyFeeBps","type":"uint96","internalType":"uint96"},{"name":"baseIPFS","type":"string","internalType":"string"}],"stateMutability":"nonpayable"},{"type":"function","name":"DEFAULT_ADMIN_ROLE","inputs":[],"outputs":[{"name":"","type":"bytes32","internalType":"bytes32"}],"stateMutability":"view"},{"type":"function","name":"MINTER_ROLE","inputs":[],"outputs":[{"name":"","type":"bytes32","internalType":"bytes32"}],"stateMutability":"view"},{"type":"function","name":"PAUSER_ROLE","inputs":[],"outputs":[{"name":"","type":"bytes32","internalType":"bytes32"}],"stateMutability":"view"},{"type":"function","name":"REVOKER_ROLE","inputs":[],"outputs":[{"name":"","type":"bytes32","internalType":"bytes32"}],"stateMutability":"view"},{"type":"function","name":"approve","inputs":[{"name":"to","type":"address","internalType":"address"},{"name":"tokenId","type":"uint256","internalType":"uint256"}],"outputs":[],"stateMutability":"nonpayable"},{"type":"function","name":"balanceOf","inputs":[{"name":"owner","type":"address","internalType":"address"}],"outputs":[{"name":"","type":"uint256","internalType":"uint256"}],"stateMutability":"view"},{"type":"function","name":"getApproved","inputs":[{"name":"tokenId","type":"uint256","internalType":"uint256"}],"outputs":[{"name":"","type":"address","internalType":"address"}],"stateMutability":"view"},{"type":"function","name":"getRoleAdmin","inputs":[{"name":"role","type":"bytes32","internalType":"bytes32"}],"outputs":[{"name":"","type":"bytes32","internalType":"bytes32"}],"stateMutability":"view"},{"type":"function","name":"getSerialByTokenId","inputs":[{"name":"tokenId","type":"uint256","internalType":"uint256"}],"outputs":[{"name":"","type":"string","internalType":"string"}],"stateMutability":"view"},{"type":"function","name":"getTokenIdBySerial","inputs":[{"name":"serialNumber","type":"string","internalType":"string"}],"outputs":[{"name":"","type":"uint256","internalType":"uint256"}],"stateMutability":"view"},{"type":"function","name":"grantRole","inputs":[{"name":"role","type":"bytes32","internalType":"bytes32"},{"name":"account","type":"address","internalType":"address"}],"outputs":[],"stateMutability":"nonpayable"},{"type":"function","name":"hasRole","inputs":[{"name":"role","type":"bytes32","internalType":"bytes32"},{"name":"account","type":"address","internalType":"address"}],"outputs":[{"name":"","type":"bool","internalType":"bool"}],"stateMutability":"view"},{"type":"function","name":"isApprovedForAll","inputs":[{"name":"owner","type":"address","internalType":"address"},{"name":"operator","type":"address","internalType":"address"}],"outputs":[{"name":"","type":"bool","internalType":"bool"}],"stateMutability":"view"},{"type":"function","name":"isPassportValid","inputs":[{"name":"tokenId","type":"uint256","internalType":"uint256"}],"outputs":[{"name":"","type":"bool","internalType":"bool"}],"stateMutability":"view"},{"type":"function","name":"mintPassport","inputs":[{"name":"to","type":"address","internalType":"address"},{"name":"serialNumber","type":"string","internalType":"string"},{"name":"ipfsCid","type":"string","internalType":"string"}],"outputs":[{"name":"tokenId","type":"uint256","internalType":"uint256"}],"stateMutability":"nonpayable"},{"type":"function","name":"name","inputs":[],"outputs":[{"name":"","type":"string","internalType":"string"}],"stateMutability":"view"},{"type":"function","name":"ownerOf","inputs":[{"name":"tokenId","type":"uint256","internalType":"uint256"}],"outputs":[{"name":"","type":"address","internalType":"address"}],"stateMutability":"view"},{"type":"function","name":"pause","inputs":[],"outputs":[],"stateMutability":"nonpayable"},{"type":"function","name":"paused","inputs":[],"outputs":[{"name":"","type":"bool","internalType":"bool"}],"stateMutability":"view"},{"type":"function","name":"renounceRole","inputs":[{"name":"role","type":"bytes32","internalType":"bytes32"},{"name":"callerConfirmation","type":"address","internalType":"address"}],"outputs":[],"stateMutability":"nonpayable"},{"type":"function","name":"revokePassport","inputs":[{"name":"tokenId","type":"uint256","internalType":"uint256"},{"name":"reason","type":"string","internalType":"string"}],"outputs":[],"stateMutability":"nonpayable"},{"type":"function","name":"revokeRole","inputs":[{"name":"role","type":"bytes32","internalType":"bytes32"},{"name":"account","type":"address","internalType":"address"}],"outputs":[],"stateMutability":"nonpayable"},{"type":"function","name":"revoked","inputs":[{"name":"","type":"uint256","internalType":"uint256"}],"outputs":[{"name":"","type":"bool","internalType":"bool"}],"stateMutability":"view"},{"type":"function","name":"royaltyInfo","inputs":[{"name":"tokenId","type":"uint256","internalType":"uint256"},{"name":"salePrice","type":"uint256","internalType":"uint256"}],"outputs":[{"name":"receiver","type":"address","internalType":"address"},{"name":"amount","type":"uint256","internalType":"uint256"}],"stateMutability":"view"},{"type":"function","name":"safeTransferFrom","inputs":[{"name":"from","type":"address","internalType":"address"},{"name":"to","type":"address","internalType":"address"},{"name":"tokenId","type":"uint256","internalType":"uint256"}],"outputs":[],"stateMutability":"nonpayable"},{"type":"function","name":"safeTransferFrom","inputs":[{"name":"from","type":"address","internalType":"address"},{"name":"to","type":"address","internalType":"address"},{"name":"tokenId","type":"uint256","internalType":"uint256"},{"name":"data","type":"bytes","internalType":"bytes"}],"outputs":[],"stateMutability":"nonpayable"},{"type":"function","name":"setApprovalForAll","inputs":[{"name":"operator","type":"address","internalType":"address"},{"name":"approved","type":"bool","internalType":"bool"}],"outputs":[],"stateMutability":"nonpayable"},{"type":"function","name":"setSoulboundContract","inputs":[{"name":"_soulboundContract","type":"address","internalType":"address"}],"outputs":[],"stateMutability":"nonpayable"},{"type":"function","name":"setTokenRoyalty","inputs":[{"name":"tokenId","type":"uint256","internalType":"uint256"},{"name":"receiver","type":"address","internalType":"address"},{"name":"feeNumerator","type":"uint96","internalType":"uint96"}],"outputs":[],"stateMutability":"nonpayable"},{"type":"function","name":"soulboundContract","inputs":[],"outputs":[{"name":"","type":"address","internalType":"address"}],"stateMutability":"view"},{"type":"function","name":"supportsInterface","inputs":[{"name":"interfaceId","type":"bytes4","internalType":"bytes4"}],"outputs":[{"name":"","type":"bool","internalType":"bool"}],"stateMutability":"view"},{"type":"function","name":"symbol","inputs":[],"outputs":[{"name":"","type":"string","internalType":"string"}],"stateMutability":"view"},{"type":"function","name":"tokenURI","inputs":[{"name":"tokenId","type":"uint256","internalType":"uint256"}],"outputs":[{"name":"","type":"string","internalType":"string"}],"stateMutability":"view"},{"type":"function","name":"totalSupply","inputs":[],"outputs":[{"name":"","type":"uint256","internalType":"uint256"}],"stateMutability":"view"},{"type":"function","name":"transferFrom","inputs":[{"name":"from","type":"address","internalType":"address"},{"name":"to","type":"address","internalType":"address"},{"name":"tokenId","type":"uint256","internalType":"uint256"}],"outputs":[],"stateMutability":"nonpayable"},{"type":"function","name":"unpause","inputs":[],"outputs":[],"stateMutability":"nonpayable"},{"type":"event","name":"Approval","inputs":[{"name":"owner","type":"address","indexed":true,"internalType":"address"},{"name":"approved","type":"address","indexed":true,"internalType":"address"},{"name":"tokenId","type":"uint256","indexed":true,"internalType":"uint256"}],"anonymous":false},{"type":"event","name":"ApprovalForAll","inputs":[{"name":"owner","type":"address","indexed":true,"internalType":"address"},{"name":"operator","type":"address","indexed":true,"internalType":"address"},{"name":"approved","type":"bool","indexed":false,"internalType":"bool"}],"anonymous":false},{"type":"event","name":"BatchMetadataUpdate","inputs":[{"name":"_fromTokenId","type":"uint256","indexed":false,"internalType":"uint256"},{"name":"_toTokenId","type":"uint256","indexed":false,"internalType":"uint256"}],"anonymous":false},{"type":"event","name":"MetadataUpdate","inputs":[{"name":"_tokenId","type":"uint256","indexed":false,"internalType":"uint256"}],"anonymous":false},{"type":"event","name":"OwnershipTransferred","inputs":[{"name":"tokenId","type":"uint256","indexed":true,"internalType":"uint256"},{"name":"from","type":"address","indexed":true,"internalType":"address"},{"name":"to","type":"address","indexed":true,"internalType":"address"},{"name":"timestamp","type":"uint256","indexed":false,"internalType":"uint256"}],"anonymous":false},{"type":"event","name":"PassportMinted","inputs":[{"name":"tokenId","type":"uint256","indexed":true,"internalType":"uint256"},{"name":"owner","type":"address","indexed":true,"internalType":"address"},{"name":"serialNumber","type":"string","indexed":false,"internalType":"string"},{"name":"ipfsCid","type":"string","indexed":false,"internalType":"string"}],"anonymous":false},{"type":"event","name":"PassportRevoked","inputs":[{"name":"tokenId","type":"uint256","indexed":true,"internalType":"uint256"},{"name":"revokedBy","type":"address","indexed":true,"internalType":"address"},{"name":"reason","type":"string","indexed":false,"internalType":"string"}],"anonymous":false},{"type":"event","name":"Paused","inputs":[{"name":"account","type":"address","indexed":false,"internalType":"address"}],"anonymous":false},{"type":"event","name":"RoleAdminChanged","inputs":[{"name":"role","type":"bytes32","indexed":true,"internalType":"bytes32"},{"name":"previousAdminRole","type":"bytes32","indexed":true,"internalType":"bytes32"},{"name":"newAdminRole","type":"bytes32","indexed":true,"internalType":"bytes32"}],"anonymous":false},{"type":"event","name":"RoleGranted","inputs":[{"name":"role","type":"bytes32","indexed":true,"internalType":"bytes32"},{"name":"account","type":"address","indexed":true,"internalType":"address"},{"name":"sender","type":"address","indexed":true,"internalType":"address"}],"anonymous":false},{"type":"event","name":"RoleRevoked","inputs":[{"name":"role","type":"bytes32","indexed":true,"internalType":"bytes32"},{"name":"account","type":"address","indexed":true,"internalType":"address"},{"name":"sender","type":"address","indexed":true,"internalType":"address"}],"anonymous":false},{"type":"event","name":"SoulboundContractUpdated","inputs":[{"name":"newContract","type":"address","indexed":true,"internalType":"address"}],"anonymous":false},{"type":"event","name":"Transfer","inputs":[{"name":"from","type":"address","indexed":true,"internalType":"address"},{"name":"to","type":"address","indexed":true,"internalType":"address"},{"name":"tokenId","type":"uint256","indexed":true,"internalType":"uint256"}],"anonymous":false},{"type":"event","name":"Unpaused","inputs":[{"name":"account","type":"address","indexed":false,"internalType":"address"}],"anonymous":false},{"type":"error","name":"AccessControlBadConfirmation","inputs":[]},{"type":"error","name":"AccessControlUnauthorizedAccount","inputs":[{"name":"account","type":"address","internalType":"address"},{"name":"neededRole","type":"bytes32","internalType":"bytes32"}]},{"type":"error","name":"ERC2981InvalidDefaultRoyalty","inputs":[{"name":"numerator","type":"uint256","internalType":"uint256"},{"name":"denominator","type":"uint256","internalType":"uint256"}]},{"type":"error","name":"ERC2981InvalidDefaultRoyaltyReceiver","inputs":[{"name":"receiver","type":"address","internalType":"address"}]},{"type":"error","name":"ERC2981InvalidTokenRoyalty","inputs":[{"name":"tokenId","type":"uint256","internalType":"uint256"},{"name":"numerator","type":"uint256","internalType":"uint256"},{"name":"denominator","type":"uint256","internalType":"uint256"}]},{"type":"error","name":"ERC2981InvalidTokenRoyaltyReceiver","inputs":[{"name":"tokenId","type":"uint256","internalType":"uint256"},{"name":"receiver","type":"address","internalType":"address"}]},{"type":"error","name":"ERC721IncorrectOwner","inputs":[{"name":"sender","type":"address","internalType":"address"},{"name":"tokenId","type":"uint256","internalType":"uint256"},{"name":"owner","type":"address","internalType":"address"}]},{"type":"error","name":"ERC721InsufficientApproval","inputs":[{"name":"operator","type":"address","internalType":"address"},{"name":"tokenId","type":"uint256","internalType":"uint256"}]},{"type":"error","name":"ERC721InvalidApprover","inputs":[{"name":"approver","type":"address","internalType":"address"}]},{"type":"error","name":"ERC721InvalidOperator","inputs":[{"name":"operator","type":"address","internalType":"address"}]},{"type":"error","name":"ERC721InvalidOwner","inputs":[{"name":"owner","type":"address","internalType":"address"}]},{"type":"error","name":"ERC721InvalidReceiver","inputs":[{"name":"receiver","type":"address","internalType":"address"}]},{"type":"error","name":"ERC721InvalidSender","inputs":[{"name":"sender","type":"address","internalType":"address"}]},{"type":"error","name":"ERC721NonexistentToken","inputs":[{"name":"tokenId","type":"uint256","internalType":"uint256"}]},{"type":"error","name":"EnforcedPause","inputs":[]},{"type":"error","name":"ExpectedPause","inputs":[]},{"type":"error","name":"ReentrancyGuardReentrantCall","inputs":[]}],"bytecode":{"object":"0x608060405234801562000010575f80fd5b5060405162002c5338038062002c53833981016040819052620000339162000485565b6040518060400160405280601781526020017f52494d4f5741204469676974616c2050617373706f7274000000000000000000815250604051806040016040528060048152602001630524450560e41b815250815f908162000096919062000621565b506001620000a5828262000621565b5050506001620000c1620000be620002db60201b60201c565b90565b556001600160a01b038416620001335760405162461bcd60e51b815260206004820152602c60248201527f52696d6f776150617373706f72743a2061646d696e2063616e6e6f742062652060448201526b7a65726f206164647265737360a01b60648201526084015b60405180910390fd5b6001600160a01b038316620001b15760405162461bcd60e51b815260206004820152603760248201527f52696d6f776150617373706f72743a20726f79616c747920726563656976657260448201527f2063616e6e6f74206265207a65726f206164647265737300000000000000000060648201526084016200012a565b6103e8826001600160601b03161115620002225760405162461bcd60e51b815260206004820152602b60248201527f52696d6f776150617373706f72743a20726f79616c746965732063616e6e6f7460448201526a206578636565642031302560a81b60648201526084016200012a565b600c62000230828262000621565b506200023d5f85620002ff565b506200026a7f9f2df0fed2c77648de5860a4cc508cd0818c85b8b8a1ab4ceeef8d981c8956a685620002ff565b50620002977fce3f34913921da558f105cefb578d87278debbbd073a8d552b5de0d168deee3085620002ff565b50620002c47f65d7a28e3265b37a6474929f336521b332c1681b933f6cb9f3376673440d862a85620002ff565b50620002d18383620003af565b50505050620006ed565b7f9b779b17422d0df92223018b32b4d1fa46e071723d6817e2486d003becc55f0090565b5f8281526009602090815260408083206001600160a01b038516845290915281205460ff16620003a6575f8381526009602090815260408083206001600160a01b03861684529091529020805460ff191660011790556200035d3390565b6001600160a01b0316826001600160a01b0316847f2f8788117e7eff1d82e926ec794901d17c78024a50270940304540a733656f0d60405160405180910390a4506001620003a9565b505f5b92915050565b6127106001600160601b038216811015620003f057604051636f483d0960e01b81526001600160601b0383166004820152602481018290526044016200012a565b6001600160a01b0383166200041b57604051635b6cc80560e11b81525f60048201526024016200012a565b50604080518082019091526001600160a01b039092168083526001600160601b039091166020909201829052600160a01b90910217600755565b80516001600160a01b03811681146200046c575f80fd5b919050565b634e487b7160e01b5f52604160045260245ffd5b5f805f806080858703121562000499575f80fd5b620004a48562000455565b93506020620004b581870162000455565b60408701519094506001600160601b0381168114620004d2575f80fd5b60608701519093506001600160401b0380821115620004ef575f80fd5b818801915088601f83011262000503575f80fd5b81518181111562000518576200051862000471565b604051601f8201601f19908116603f0116810190838211818310171562000543576200054362000471565b816040528281528b868487010111156200055b575f80fd5b5f93505b828410156200057e57848401860151818501870152928501926200055f565b5f86848301015280965050505050505092959194509250565b600181811c90821680620005ac57607f821691505b602082108103620005cb57634e487b7160e01b5f52602260045260245ffd5b50919050565b601f8211156200061c57805f5260205f20601f840160051c81016020851015620005f85750805b601f840160051c820191505b8181101562000619575f815560010162000604565b50505b505050565b81516001600160401b038111156200063d576200063d62000471565b62000655816200064e845462000597565b84620005d1565b602080601f8311600181146200068b575f8415620006735750858301515b5f19600386901b1c1916600185901b178555620006e5565b5f85815260208120601f198616915b82811015620006bb578886015182559484019460019091019084016200069a565b5085821015620006d957878501515f19600388901b60f8161c191681555b505060018460011b0185555b505050505050565b61255880620006fb5f395ff3fe608060405234801561000f575f80fd5b5060043610610213575f3560e01c806370a082311161011f578063a22cb465116100a9578063d539139311610079578063d5391393146104a1578063d547741f146104c8578063d5b141e7146104db578063e63ab1e9146104fd578063e985e9c514610524575f80fd5b8063a22cb46514610455578063b88d4fde14610468578063bb1491841461047b578063c87b56dd1461048e575f80fd5b806391d14854116100ef57806391d148541461040d57806395d89b411461042057806398463d15146104285780639c3642171461043b578063a217fddf1461044e575f80fd5b806370a08231146103b85780637187d711146103cb5780637c4acabf146103de5780638456cb5914610405575f80fd5b806336568abe116101a057806346b7146f1161017057806346b7146f146103615780635944c753146103745780635c975abb146103875780636352211e14610392578063700059a0146103a5575f80fd5b806336568abe146103205780633f4ba83a1461033357806342842e0e1461033b57806342defa2b1461034e575f80fd5b806318160ddd116101e657806318160ddd1461029457806323b872dd146102a6578063248a9ca3146102b95780632a55205a146102db5780632f2ff15d1461030d575f80fd5b806301ffc9a71461021757806306fdde031461023f578063081812fc14610254578063095ea7b31461027f575b5f80fd5b61022a610225366004611ceb565b610537565b60405190151581526020015b60405180910390f35b610247610547565b6040516102369190611d53565b610267610262366004611d65565b6105d6565b6040516001600160a01b039091168152602001610236565b61029261028d366004611d97565b6105fd565b005b600b545b604051908152602001610236565b6102926102b4366004611dbf565b61060c565b6102986102c7366004611d65565b5f9081526009602052604090206001015490565b6102ee6102e9366004611df8565b61069a565b604080516001600160a01b039093168352602083019190915201610236565b61029261031b366004611e18565b61071f565b61029261032e366004611e18565b610743565b61029261077b565b610292610349366004611dbf565b6107b0565b601054610267906001600160a01b031681565b61022a61036f366004611d65565b6107ca565b610292610382366004611e42565b610800565b600a5460ff1661022a565b6102676103a0366004611d65565b610884565b6102986103b3366004611ec8565b61088e565b6102986103c6366004611f07565b610909565b6102476103d9366004611d65565b61094e565b6102987fce3f34913921da558f105cefb578d87278debbbd073a8d552b5de0d168deee3081565b610292610a1f565b61022a61041b366004611e18565b610a51565b610247610a7b565b610298610436366004611f20565b610a8a565b610292610449366004611f9b565b610d4f565b6102985f81565b610292610463366004611fe3565b610e74565b610292610476366004612030565b610e7f565b610292610489366004611f07565b610e97565b61024761049c366004611d65565b610f41565b6102987f9f2df0fed2c77648de5860a4cc508cd0818c85b8b8a1ab4ceeef8d981c8956a681565b6102926104d6366004611e18565b610fc2565b61022a6104e9366004611d65565b600f6020525f908152604090205460ff1681565b6102987f65d7a28e3265b37a6474929f336521b332c1681b933f6cb9f3376673440d862a81565b61022a610532366004612105565b610fe6565b5f61054182611013565b92915050565b60605f80546105559061212d565b80601f01602080910402602001604051908101604052809291908181526020018280546105819061212d565b80156105cc5780601f106105a3576101008083540402835291602001916105cc565b820191905f5260205f20905b8154815290600101906020018083116105af57829003601f168201915b5050505050905090565b5f6105e082611037565b505f828152600460205260409020546001600160a01b0316610541565b61060882823361106f565b5050565b6001600160a01b03821661063a57604051633250574960e11b81525f60048201526024015b60405180910390fd5b5f61064683833361107c565b9050836001600160a01b0316816001600160a01b031614610694576040516364283d7b60e01b81526001600160a01b0380861660048301526024820184905282166044820152606401610631565b50505050565b5f82815260086020526040812080548291906001600160a01b03811690600160a01b90046001600160601b0316816106ed5750506007546001600160a01b03811690600160a01b90046001600160601b03165b5f6127106107046001600160601b03841689612165565b61070e9190612188565b9295509193505050505b9250929050565b5f828152600960205260409020600101546107398161117b565b6106948383611185565b6001600160a01b038116331461076c5760405163334bd91960e11b815260040160405180910390fd5b6107768282611216565b505050565b7f65d7a28e3265b37a6474929f336521b332c1681b933f6cb9f3376673440d862a6107a58161117b565b6107ad611281565b50565b61077683838360405180602001604052805f815250610e7f565b5f818152600260205260408120546001600160a01b0316158015906105415750505f908152600f602052604090205460ff161590565b5f61080a8161117b565b6103e8826001600160601b031611156108795760405162461bcd60e51b815260206004820152602b60248201527f52696d6f776150617373706f72743a20726f79616c746965732063616e6e6f7460448201526a206578636565642031302560a81b6064820152608401610631565b6106948484846112d3565b5f61054182611037565b5f80600d84846040516108a29291906121a7565b9081526020016040518091039020549050805f036109025760405162461bcd60e51b815260206004820181905260248201527f52696d6f776150617373706f72743a2073657269616c206e6f7420666f756e646044820152606401610631565b9392505050565b5f6001600160a01b038216610933576040516322718ad960e21b81525f6004820152602401610631565b506001600160a01b03165f9081526003602052604090205490565b5f818152600260205260409020546060906001600160a01b03166109845760405162461bcd60e51b8152600401610631906121b6565b5f828152600e60205260409020805461099c9061212d565b80601f01602080910402602001604051908101604052809291908181526020018280546109c89061212d565b8015610a135780601f106109ea57610100808354040283529160200191610a13565b820191905f5260205f20905b8154815290600101906020018083116109f657829003601f168201915b50505050509050919050565b7f65d7a28e3265b37a6474929f336521b332c1681b933f6cb9f3376673440d862a610a498161117b565b6107ad611393565b5f9182526009602090815260408084206001600160a01b0393909316845291905290205460ff1690565b6060600180546105559061212d565b5f7f9f2df0fed2c77648de5860a4cc508cd0818c85b8b8a1ab4ceeef8d981c8956a6610ab58161117b565b610abd6113d0565b610ac56113f6565b6001600160a01b038716610b275760405162461bcd60e51b8152602060048201526024808201527f52696d6f776150617373706f72743a206d696e7420746f207a65726f206164646044820152637265737360e01b6064820152608401610631565b84610b805760405162461bcd60e51b815260206004820152602360248201527f52696d6f776150617373706f72743a20656d7074792073657269616c206e756d6044820152623132b960e91b6064820152608401610631565b82610bcd5760405162461bcd60e51b815260206004820152601e60248201527f52696d6f776150617373706f72743a20656d70747920495046532043494400006044820152606401610631565b600d8686604051610bdf9291906121a7565b9081526020016040518091039020545f14610c4e5760405162461bcd60e51b815260206004820152602960248201527f52696d6f776150617373706f72743a2073657269616c20616c726561647920726044820152681959da5cdd195c995960ba1b6064820152608401610631565b600b5f8154600101919050819055915081600d8787604051610c719291906121a7565b9081526040805160209281900383019020929092555f848152600e90915220610c9b86888361223e565b50610ca68783611424565b610cd482600c8686604051602001610cc0939291906122f8565b60405160208183030381529060405261143d565b866001600160a01b0316827fcb6eaf99bc31b9933da3b439007e8ef464210391aaf49748abdbf208026360ec88888888604051610d14949392919061239d565b60405180910390a3610d4560017f9b779b17422d0df92223018b32b4d1fa46e071723d6817e2486d003becc55f0055565b5095945050505050565b7fce3f34913921da558f105cefb578d87278debbbd073a8d552b5de0d168deee30610d798161117b565b5f848152600260205260409020546001600160a01b0316610dac5760405162461bcd60e51b8152600401610631906121b6565b5f848152600f602052604090205460ff1615610e185760405162461bcd60e51b815260206004820152602560248201527f52696d6f776150617373706f72743a20746f6b656e20616c72656164792072656044820152641d9bdad95960da1b6064820152608401610631565b5f848152600f602052604090819020805460ff1916600117905551339085907f93dbe4e65ea2a4b3c069d6df03c34b337ced2fa3a3d96117ed3a8a605a77a66c90610e6690879087906123ce565b60405180910390a350505050565b61060833838361148c565b610e8a84848461060c565b6106943385858585611553565b5f610ea18161117b565b6001600160a01b038216610ef75760405162461bcd60e51b815260206004820152601c60248201527f52696d6f776150617373706f72743a207a65726f2061646472657373000000006044820152606401610631565b601080546001600160a01b0319166001600160a01b0384169081179091556040517ffdb32e02ca5f7e7e5ef7a046a3b827043d2a8d7889295852892651638841b398905f90a25050565b6060610f4c82611037565b505f610f6260408051602081019091525f815290565b90505f610f6e8461167b565b905081515f03610f7f579392505050565b805115610fb1578181604051602001610f999291906123e1565b60405160208183030381529060405292505050919050565b610fba84611697565b949350505050565b5f82815260096020526040902060010154610fdc8161117b565b6106948383611216565b6001600160a01b039182165f90815260056020908152604080832093909416825291909152205460ff1690565b5f6001600160e01b03198216637965db0b60e01b1480610541575061054182611707565b5f818152600260205260408120546001600160a01b03168061054157604051637e27328960e01b815260048101849052602401610631565b610776838383600161172b565b5f6110856113d0565b6001600160a01b038416156110f2575f838152600f602052604090205460ff16156110f25760405162461bcd60e51b815260206004820181905260248201527f52696d6f776150617373706f72743a20746f6b656e206973207265766f6b65646044820152606401610631565b5f6110fe85858561182f565b90506001600160a01b0381161580159061112057506001600160a01b03851615155b15610fba57846001600160a01b0316816001600160a01b0316857f06f354ec7b9d2ca4e029f73ccb9119943a48c3295704dd66ca8beda0c7bae33f4260405161116b91815260200190565b60405180910390a4949350505050565b6107ad8133611921565b5f6111908383610a51565b61120f575f8381526009602090815260408083206001600160a01b03861684529091529020805460ff191660011790556111c73390565b6001600160a01b0316826001600160a01b0316847f2f8788117e7eff1d82e926ec794901d17c78024a50270940304540a733656f0d60405160405180910390a4506001610541565b505f610541565b5f6112218383610a51565b1561120f575f8381526009602090815260408083206001600160a01b0386168085529252808320805460ff1916905551339286917ff6391f5c32d9c69d2a47ea670b442974b53935d1edc7fd64eb21e047a839171b9190a4506001610541565b61128961195a565b600a805460ff191690557f5db9ee0a495bf2e6ff9c91a7834c1ba4fdd244a5e8aa4e537bd38aeae4b073aa335b6040516001600160a01b03909116815260200160405180910390a1565b6127106001600160601b0382168110156113195760405163dfd1fc1b60e01b8152600481018590526001600160601b038316602482015260448101829052606401610631565b6001600160a01b03831661134957604051634b4f842960e11b8152600481018590525f6024820152604401610631565b506040805180820182526001600160a01b0393841681526001600160601b0392831660208083019182525f968752600890529190942093519051909116600160a01b029116179055565b61139b6113d0565b600a805460ff191660011790557f62e78cea01bee320cd4e420270b5ea74000d11b0c9f74754ebdbfc544b05a2586112b63390565b600a5460ff16156113f45760405163d93c066560e01b815260040160405180910390fd5b565b6113fe61197d565b60027f9b779b17422d0df92223018b32b4d1fa46e071723d6817e2486d003becc55f0055565b610608828260405180602001604052805f8152506119bf565b5f828152600660205260409020611454828261240f565b506040518281527ff8e1a15aba9398e019f0b49df1a4fde98ee17ae345cb5f6b5e2c27f5033e8ce79060200160405180910390a15050565b6001600160a01b0383166114b55760405163a9fbf51f60e01b81525f6004820152602401610631565b6001600160a01b0382166114e757604051630b61174360e31b81526001600160a01b0383166004820152602401610631565b6001600160a01b038381165f81815260056020908152604080832094871680845294825291829020805460ff191686151590811790915591519182527f17307eab39ab6107e8899845ad3d59bd9653f200f220920489ca2b5937696c31910160405180910390a3505050565b6001600160a01b0383163b1561167457604051630a85bd0160e11b81526001600160a01b0384169063150b7a02906115959088908890879087906004016124cb565b6020604051808303815f875af19250505080156115cf575060408051601f3d908101601f191682019092526115cc91810190612507565b60015b611636573d8080156115fc576040519150601f19603f3d011682016040523d82523d5f602084013e611601565b606091505b5080515f0361162e57604051633250574960e11b81526001600160a01b0385166004820152602401610631565b805160208201fd5b6001600160e01b03198116630a85bd0160e11b1461167257604051633250574960e11b81526001600160a01b0385166004820152602401610631565b505b5050505050565b5f81815260066020526040902080546060919061099c9061212d565b60606116a282611037565b505f6116b860408051602081019091525f815290565b90505f8151116116d65760405180602001604052805f815250610902565b806116e0846119d6565b6040516020016116f19291906123e1565b6040516020818303038152906040529392505050565b5f6001600160e01b0319821663152a902d60e11b1480610541575061054182611a66565b808061173f57506001600160a01b03821615155b15611800575f61174e84611037565b90506001600160a01b0383161580159061177a5750826001600160a01b0316816001600160a01b031614155b801561178d575061178b8184610fe6565b155b156117b65760405163a9fbf51f60e01b81526001600160a01b0384166004820152602401610631565b81156117fe5783856001600160a01b0316826001600160a01b03167f8c5be1e5ebec7d5bd14f71427d1e84f3dd0314c0f7b2291e5b200ac8c7c3b92560405160405180910390a45b505b50505f90815260046020526040902080546001600160a01b0319166001600160a01b0392909216919091179055565b5f828152600260205260408120546001600160a01b039081169083161561185b5761185b818486611a8a565b6001600160a01b03811615611895576118765f855f8061172b565b6001600160a01b0381165f90815260036020526040902080545f190190555b6001600160a01b038516156118c3576001600160a01b0385165f908152600360205260409020805460010190555b5f8481526002602052604080822080546001600160a01b0319166001600160a01b0389811691821790925591518793918516917fddf252ad1be2c89b69c2b068fc378daa952ba7f163c4a11628f55a4df523b3ef91a4949350505050565b61192b8282610a51565b6106085760405163e2517d3f60e01b81526001600160a01b038216600482015260248101839052604401610631565b600a5460ff166113f457604051638dfc202b60e01b815260040160405180910390fd5b7f9b779b17422d0df92223018b32b4d1fa46e071723d6817e2486d003becc55f00546002036113f457604051633ee5aeb560e01b815260040160405180910390fd5b6119c98383611aee565b610776335f858585611553565b60605f6119e283611b4f565b60010190505f8167ffffffffffffffff811115611a0157611a0161201c565b6040519080825280601f01601f191660200182016040528015611a2b576020820181803683370190505b5090508181016020015b5f19016f181899199a1a9b1b9c1cb0b131b232b360811b600a86061a8153600a8504945084611a3557509392505050565b5f6001600160e01b03198216632483248360e11b1480610541575061054182611c26565b611a95838383611c75565b610776576001600160a01b038316611ac357604051637e27328960e01b815260048101829052602401610631565b60405163177e802f60e01b81526001600160a01b038316600482015260248101829052604401610631565b6001600160a01b038216611b1757604051633250574960e11b81525f6004820152602401610631565b5f611b2383835f61107c565b90506001600160a01b03811615610776576040516339e3563760e11b81525f6004820152602401610631565b5f8072184f03e93ff9f4daa797ed6e38ed64bf6a1f0160401b8310611b8d5772184f03e93ff9f4daa797ed6e38ed64bf6a1f0160401b830492506040015b6d04ee2d6d415b85acef81000000008310611bb9576d04ee2d6d415b85acef8100000000830492506020015b662386f26fc100008310611bd757662386f26fc10000830492506010015b6305f5e1008310611bef576305f5e100830492506008015b6127108310611c0357612710830492506004015b60648310611c15576064830492506002015b600a83106105415760010192915050565b5f6001600160e01b031982166380ac58cd60e01b1480611c5657506001600160e01b03198216635b5e139f60e01b145b8061054157506301ffc9a760e01b6001600160e01b0319831614610541565b5f6001600160a01b03831615801590610fba5750826001600160a01b0316846001600160a01b03161480611cae5750611cae8484610fe6565b80610fba5750505f908152600460205260409020546001600160a01b03908116911614919050565b6001600160e01b0319811681146107ad575f80fd5b5f60208284031215611cfb575f80fd5b813561090281611cd6565b5f5b83811015611d20578181015183820152602001611d08565b50505f910152565b5f8151808452611d3f816020860160208601611d06565b601f01601f19169290920160200192915050565b602081525f6109026020830184611d28565b5f60208284031215611d75575f80fd5b5035919050565b80356001600160a01b0381168114611d92575f80fd5b919050565b5f8060408385031215611da8575f80fd5b611db183611d7c565b946020939093013593505050565b5f805f60608486031215611dd1575f80fd5b611dda84611d7c565b9250611de860208501611d7c565b9150604084013590509250925092565b5f8060408385031215611e09575f80fd5b50508035926020909101359150565b5f8060408385031215611e29575f80fd5b82359150611e3960208401611d7c565b90509250929050565b5f805f60608486031215611e54575f80fd5b83359250611e6460208501611d7c565b915060408401356001600160601b0381168114611e7f575f80fd5b809150509250925092565b5f8083601f840112611e9a575f80fd5b50813567ffffffffffffffff811115611eb1575f80fd5b602083019150836020828501011115610718575f80fd5b5f8060208385031215611ed9575f80fd5b823567ffffffffffffffff811115611eef575f80fd5b611efb85828601611e8a565b90969095509350505050565b5f60208284031215611f17575f80fd5b61090282611d7c565b5f805f805f60608688031215611f34575f80fd5b611f3d86611d7c565b9450602086013567ffffffffffffffff80821115611f59575f80fd5b611f6589838a01611e8a565b90965094506040880135915080821115611f7d575f80fd5b50611f8a88828901611e8a565b969995985093965092949392505050565b5f805f60408486031215611fad575f80fd5b83359250602084013567ffffffffffffffff811115611fca575f80fd5b611fd686828701611e8a565b9497909650939450505050565b5f8060408385031215611ff4575f80fd5b611ffd83611d7c565b915060208301358015158114612011575f80fd5b809150509250929050565b634e487b7160e01b5f52604160045260245ffd5b5f805f8060808587031215612043575f80fd5b61204c85611d7c565b935061205a60208601611d7c565b925060408501359150606085013567ffffffffffffffff8082111561207d575f80fd5b818701915087601f830112612090575f80fd5b8135818111156120a2576120a261201c565b604051601f8201601f19908116603f011681019083821181831017156120ca576120ca61201c565b816040528281528a60208487010111156120e2575f80fd5b826020860160208301375f60208483010152809550505050505092959194509250565b5f8060408385031215612116575f80fd5b61211f83611d7c565b9150611e3960208401611d7c565b600181811c9082168061214157607f821691505b60208210810361215f57634e487b7160e01b5f52602260045260245ffd5b50919050565b808202811582820484141761054157634e487b7160e01b5f52601160045260245ffd5b5f826121a257634e487b7160e01b5f52601260045260245ffd5b500490565b818382375f9101908152919050565b60208082526024908201527f52696d6f776150617373706f72743a20746f6b656e20646f6573206e6f7420656040820152631e1a5cdd60e21b606082015260800190565b601f82111561077657805f5260205f20601f840160051c8101602085101561221f5750805b601f840160051c820191505b81811015611674575f815560010161222b565b67ffffffffffffffff8311156122565761225661201c565b61226a83612264835461212d565b836121fa565b5f601f84116001811461229b575f85156122845750838201355b5f19600387901b1c1916600186901b178355611674565b5f83815260208120601f198716915b828110156122ca57868501358255602094850194600190920191016122aa565b50868210156122e6575f1960f88860031b161c19848701351681555b505060018560011b0183555050505050565b5f8085546123058161212d565b6001828116801561231d57600181146123325761235e565b60ff198416875282151583028701945061235e565b895f526020805f205f5b858110156123555781548a82015290840190820161233c565b50505082870194505b50505050838582375f930192835250909392505050565b81835281816020850137505f828201602090810191909152601f909101601f19169091010190565b604081525f6123b0604083018688612375565b82810360208401526123c3818587612375565b979650505050505050565b602081525f610fba602083018486612375565b5f83516123f2818460208801611d06565b835190830190612406818360208801611d06565b01949350505050565b815167ffffffffffffffff8111156124295761242961201c565b61243d81612437845461212d565b846121fa565b602080601f831160018114612470575f84156124595750858301515b5f19600386901b1c1916600185901b178555611672565b5f85815260208120601f198616915b8281101561249e5788860151825594840194600190910190840161247f565b50858210156124bb57878501515f19600388901b60f8161c191681555b5050505050600190811b01905550565b6001600160a01b03858116825284166020820152604081018390526080606082018190525f906124fd90830184611d28565b9695505050505050565b5f60208284031215612517575f80fd5b815161090281611cd656fea26469706673582212205432abe88751a6c3303b59972ada67122738a820ce0af2a25367ede0071fff0964736f6c63430008180033","linkReferences":{}},"methodIdentifiers":{"DEFAULT_ADMIN_ROLE()":"a217fddf","MINTER_ROLE()":"d5391393","PAUSER_ROLE()":"e63ab1e9","REVOKER_ROLE()":"7c4acabf","approve(address,uint256)":"095ea7b3","balanceOf(address)":"70a08231","getApproved(uint256)":"081812fc","getRoleAdmin(bytes32)":"248a9ca3","getSerialByTokenId(uint256)":"7187d711","getTokenIdBySerial(string)":"700059a0","grantRole(bytes32,address)":"2f2ff15d","hasRole(bytes32,address)":"91d14854","isApprovedForAll(address,address)":"e985e9c5","isPassportValid(uint256)":"46b7146f","mintPassport(address,string,string)":"98463d15","name()":"06fdde03","ownerOf(uint256)":"6352211e","pause()":"8456cb59","paused()":"5c975abb","renounceRole(bytes32,address)":"36568abe","revokePassport(uint256,string)":"9c364217","revokeRole(bytes32,address)":"d547741f","revoked(uint256)":"d5b141e7","royaltyInfo(uint256,uint256)":"2a55205a","safeTransferFrom(address,address,uint256)":"42842e0e","safeTransferFrom(address,address,uint256,bytes)":"b88d4fde","setApprovalForAll(address,bool)":"a22cb465","setSoulboundContract(address)":"bb149184","setTokenRoyalty(uint256,address,uint96)":"5944c753","soulboundContract()":"42defa2b","supportsInterface(bytes4)":"01ffc9a7","symbol()":"95d89b41","tokenURI(uint256)":"c87b56dd","totalSupply()":"18160ddd","transferFrom(address,address,uint256)":"23b872dd","unpause()":"3f4ba83a"},"id":62}