{"abi":[{"type":"constructor","inputs":[{"name":"initialAdmin","type":"address","internalType":"address"},{"name":"royaltyReceiver","type":"address","internalType":"address"},{"name":"royaltyFeeBps","type":"uint96","internalType":"uint96"}],"stateMutability":"nonpayable"},{"type":"function","name":"COLLECTION_MANAGER_ROLE","inputs":[],"outputs":[{"name":"","type":"bytes32","internalType":"bytes32"}],"stateMutability":"view"},{"type":"function","name":"DEFAULT_ADMIN_ROLE","inputs":[],"outputs":[{"name":"","type":"bytes32","internalType":"bytes32"}],"stateMutability":"view"},{"type":"function","name":"MINTER_ROLE","inputs":[],"outputs":[{"name":"","type":"bytes32","internalType":"bytes32"}],"stateMutability":"view"},{"type":"function","name":"PAUSER_ROLE","inputs":[],"outputs":[{"name":"","type":"bytes32","internalType":"bytes32"}],"stateMutability":"view"},{"type":"function","name":"balanceOf","inputs":[{"name":"account","type":"address","internalType":"address"},{"name":"id","type":"uint256","internalType":"uint256"}],"outputs":[{"name":"","type":"uint256","internalType":"uint256"}],"stateMutability":"view"},{"type":"function","name":"balanceOfBatch","inputs":[{"name":"accounts","type":"address[]","internalType":"address[]"},{"name":"ids","type":"uint256[]","internalType":"uint256[]"}],"outputs":[{"name":"","type":"uint256[]","internalType":"uint256[]"}],"stateMutability":"view"},{"type":"function","name":"createAccessoryType","inputs":[{"name":"tokenId","type":"uint256","internalType":"uint256"},{"name":"maxSupply","type":"uint256","internalType":"uint256"},{"name":"ipfsCid","type":"string","internalType":"string"}],"outputs":[],"stateMutability":"nonpayable"},{"type":"function","name":"createLimitedEdition","inputs":[{"name":"maxSupply","type":"uint256","internalType":"uint256"},{"name":"ipfsCid","type":"string","internalType":"string"}],"outputs":[{"name":"tokenId","type":"uint256","internalType":"uint256"}],"stateMutability":"nonpayable"},{"type":"function","name":"deactivateCollection","inputs":[{"name":"tokenId","type":"uint256","internalType":"uint256"}],"outputs":[],"stateMutability":"nonpayable"},{"type":"function","name":"exists","inputs":[{"name":"id","type":"uint256","internalType":"uint256"}],"outputs":[{"name":"","type":"bool","internalType":"bool"}],"stateMutability":"view"},{"type":"function","name":"getRoleAdmin","inputs":[{"name":"role","type":"bytes32","internalType":"bytes32"}],"outputs":[{"name":"","type":"bytes32","internalType":"bytes32"}],"stateMutability":"view"},{"type":"function","name":"getTokenConfig","inputs":[{"name":"tokenId","type":"uint256","internalType":"uint256"}],"outputs":[{"name":"","type":"tuple","internalType":"struct RimowaAccessories.TokenConfig","components":[{"name":"maxSupply","type":"uint256","internalType":"uint256"},{"name":"mintedCount","type":"uint256","internalType":"uint256"},{"name":"category","type":"uint8","internalType":"enum RimowaAccessories.TokenCategory"},{"name":"active","type":"bool","internalType":"bool"},{"name":"ipfsCid","type":"string","internalType":"string"}]}],"stateMutability":"view"},{"type":"function","name":"grantRole","inputs":[{"name":"role","type":"bytes32","internalType":"bytes32"},{"name":"account","type":"address","internalType":"address"}],"outputs":[],"stateMutability":"nonpayable"},{"type":"function","name":"hasRole","inputs":[{"name":"role","type":"bytes32","internalType":"bytes32"},{"name":"account","type":"address","internalType":"address"}],"outputs":[{"name":"","type":"bool","internalType":"bool"}],"stateMutability":"view"},{"type":"function","name":"isApprovedForAll","inputs":[{"name":"account","type":"address","internalType":"address"},{"name":"operator","type":"address","internalType":"address"}],"outputs":[{"name":"","type":"bool","internalType":"bool"}],"stateMutability":"view"},{"type":"function","name":"mint","inputs":[{"name":"to","type":"address","internalType":"address"},{"name":"tokenId","type":"uint256","internalType":"uint256"},{"name":"amount","type":"uint256","internalType":"uint256"},{"name":"data","type":"bytes","internalType":"bytes"}],"outputs":[],"stateMutability":"nonpayable"},{"type":"function","name":"mintBatch","inputs":[{"name":"to","type":"address","internalType":"address"},{"name":"ids","type":"uint256[]","internalType":"uint256[]"},{"name":"amounts","type":"uint256[]","internalType":"uint256[]"},{"name":"data","type":"bytes","internalType":"bytes"}],"outputs":[],"stateMutability":"nonpayable"},{"type":"function","name":"pause","inputs":[],"outputs":[],"stateMutability":"nonpayable"},{"type":"function","name":"paused","inputs":[],"outputs":[{"name":"","type":"bool","internalType":"bool"}],"stateMutability":"view"},{"type":"function","name":"remainingSupply","inputs":[{"name":"tokenId","type":"uint256","internalType":"uint256"}],"outputs":[{"name":"","type":"uint256","internalType":"uint256"}],"stateMutability":"view"},{"type":"function","name":"renounceRole","inputs":[{"name":"role","type":"bytes32","internalType":"bytes32"},{"name":"callerConfirmation","type":"address","internalType":"address"}],"outputs":[],"stateMutability":"nonpayable"},{"type":"function","name":"revokeRole","inputs":[{"name":"role","type":"bytes32","internalType":"bytes32"},{"name":"account","type":"address","internalType":"address"}],"outputs":[],"stateMutability":"nonpayable"},{"type":"function","name":"royaltyInfo","inputs":[{"name":"tokenId","type":"uint256","internalType":"uint256"},{"name":"salePrice","type":"uint256","internalType":"uint256"}],"outputs":[{"name":"receiver","type":"address","internalType":"address"},{"name":"amount","type":"uint256","internalType":"uint256"}],"stateMutability":"view"},{"type":"function","name":"safeBatchTransferFrom","inputs":[{"name":"from","type":"address","internalType":"address"},{"name":"to","type":"address","internalType":"address"},{"name":"ids","type":"uint256[]","internalType":"uint256[]"},{"name":"values","type":"uint256[]","internalType":"uint256[]"},{"name":"data","type":"bytes","internalType":"bytes"}],"outputs":[],"stateMutability":"nonpayable"},{"type":"function","name":"safeTransferFrom","inputs":[{"name":"from","type":"address","internalType":"address"},{"name":"to","type":"address","internalType":"address"},{"name":"id","type":"uint256","internalType":"uint256"},{"name":"value","type":"uint256","internalType":"uint256"},{"name":"data","type":"bytes","internalType":"bytes"}],"outputs":[],"stateMutability":"nonpayable"},{"type":"function","name":"setApprovalForAll","inputs":[{"name":"operator","type":"address","internalType":"address"},{"name":"approved","type":"bool","internalType":"bool"}],"outputs":[],"stateMutability":"nonpayable"},{"type":"function","name":"supportsInterface","inputs":[{"name":"interfaceId","type":"bytes4","internalType":"bytes4"}],"outputs":[{"name":"","type":"bool","internalType":"bool"}],"stateMutability":"view"},{"type":"function","name":"totalSupply","inputs":[],"outputs":[{"name":"","type":"uint256","internalType":"uint256"}],"stateMutability":"view"},{"type":"function","name":"totalSupply","inputs":[{"name":"id","type":"uint256","internalType":"uint256"}],"outputs":[{"name":"","type":"uint256","internalType":"uint256"}],"stateMutability":"view"},{"type":"function","name":"unpause","inputs":[],"outputs":[],"stateMutability":"nonpayable"},{"type":"function","name":"uri","inputs":[{"name":"tokenId","type":"uint256","internalType":"uint256"}],"outputs":[{"name":"","type":"string","internalType":"string"}],"stateMutability":"view"},{"type":"event","name":"AccessoryMinted","inputs":[{"name":"tokenId","type":"uint256","indexed":true,"internalType":"uint256"},{"name":"to","type":"address","indexed":true,"internalType":"address"},{"name":"amount","type":"uint256","indexed":false,"internalType":"uint256"}],"anonymous":false},{"type":"event","name":"ApprovalForAll","inputs":[{"name":"account","type":"address","indexed":true,"internalType":"address"},{"name":"operator","type":"address","indexed":true,"internalType":"address"},{"name":"approved","type":"bool","indexed":false,"internalType":"bool"}],"anonymous":false},{"type":"event","name":"BatchMinted","inputs":[{"name":"to","type":"address","indexed":true,"internalType":"address"},{"name":"tokenIds","type":"uint256[]","indexed":false,"internalType":"uint256[]"},{"name":"amounts","type":"uint256[]","indexed":false,"internalType":"uint256[]"}],"anonymous":false},{"type":"event","name":"CollectionDeactivated","inputs":[{"name":"tokenId","type":"uint256","indexed":true,"internalType":"uint256"}],"anonymous":false},{"type":"event","name":"Paused","inputs":[{"name":"account","type":"address","indexed":false,"internalType":"address"}],"anonymous":false},{"type":"event","name":"RoleAdminChanged","inputs":[{"name":"role","type":"bytes32","indexed":true,"internalType":"bytes32"},{"name":"previousAdminRole","type":"bytes32","indexed":true,"internalType":"bytes32"},{"name":"newAdminRole","type":"bytes32","indexed":true,"internalType":"bytes32"}],"anonymous":false},{"type":"event","name":"RoleGranted","inputs":[{"name":"role","type":"bytes32","indexed":true,"internalType":"bytes32"},{"name":"account","type":"address","indexed":true,"internalType":"address"},{"name":"sender","type":"address","indexed":true,"internalType":"address"}],"anonymous":false},{"type":"event","name":"RoleRevoked","inputs":[{"name":"role","type":"bytes32","indexed":true,"internalType":"bytes32"},{"name":"account","type":"address","indexed":true,"internalType":"address"},{"name":"sender","type":"address","indexed":true,"internalType":"address"}],"anonymous":false},{"type":"event","name":"TokenTypeCreated","inputs":[{"name":"tokenId","type":"uint256","indexed":true,"internalType":"uint256"},{"name":"category","type":"uint8","indexed":false,"internalType":"enum RimowaAccessories.TokenCategory"},{"name":"maxSupply","type":"uint256","indexed":false,"internalType":"uint256"},{"name":"ipfsCid","type":"string","indexed":false,"internalType":"string"}],"anonymous":false},{"type":"event","name":"TransferBatch","inputs":[{"name":"operator","type":"address","indexed":true,"internalType":"address"},{"name":"from","type":"address","indexed":true,"internalType":"address"},{"name":"to","type":"address","indexed":true,"internalType":"address"},{"name":"ids","type":"uint256[]","indexed":false,"internalType":"uint256[]"},{"name":"values","type":"uint256[]","indexed":false,"internalType":"uint256[]"}],"anonymous":false},{"type":"event","name":"TransferSingle","inputs":[{"name":"operator","type":"address","indexed":true,"internalType":"address"},{"name":"from","type":"address","indexed":true,"internalType":"address"},{"name":"to","type":"address","indexed":true,"internalType":"address"},{"name":"id","type":"uint256","indexed":false,"internalType":"uint256"},{"name":"value","type":"uint256","indexed":false,"internalType":"uint256"}],"anonymous":false},{"type":"event","name":"URI","inputs":[{"name":"value","type":"string","indexed":false,"internalType":"string"},{"name":"id","type":"uint256","indexed":true,"internalType":"uint256"}],"anonymous":false},{"type":"event","name":"Unpaused","inputs":[{"name":"account","type":"address","indexed":false,"internalType":"address"}],"anonymous":false},{"type":"error","name":"AccessControlBadConfirmation","inputs":[]},{"type":"error","name":"AccessControlUnauthorizedAccount","inputs":[{"name":"account","type":"address","internalType":"address"},{"name":"neededRole","type":"bytes32","internalType":"bytes32"}]},{"type":"error","name":"ERC1155InsufficientBalance","inputs":[{"name":"sender","type":"address","internalType":"address"},{"name":"balance","type":"uint256","internalType":"uint256"},{"name":"needed","type":"uint256","internalType":"uint256"},{"name":"tokenId","type":"uint256","internalType":"uint256"}]},{"type":"error","name":"ERC1155InvalidApprover","inputs":[{"name":"approver","type":"address","internalType":"address"}]},{"type":"error","name":"ERC1155InvalidArrayLength","inputs":[{"name":"idsLength","type":"uint256","internalType":"uint256"},{"name":"valuesLength","type":"uint256","internalType":"uint256"}]},{"type":"error","name":"ERC1155InvalidOperator","inputs":[{"name":"operator","type":"address","internalType":"address"}]},{"type":"error","name":"ERC1155InvalidReceiver","inputs":[{"name":"receiver","type":"address","internalType":"address"}]},{"type":"error","name":"ERC1155InvalidSender","inputs":[{"name":"sender","type":"address","internalType":"address"}]},{"type":"error","name":"ERC1155MissingApprovalForAll","inputs":[{"name":"operator","type":"address","internalType":"address"},{"name":"owner","type":"address","internalType":"address"}]},{"type":"error","name":"ERC2981InvalidDefaultRoyalty","inputs":[{"name":"numerator","type":"uint256","internalType":"uint256"},{"name":"denominator","type":"uint256","internalType":"uint256"}]},{"type":"error","name":"ERC2981InvalidDefaultRoyaltyReceiver","inputs":[{"name":"receiver","type":"address","internalType":"address"}]},{"type":"error","name":"ERC2981InvalidTokenRoyalty","inputs":[{"name":"tokenId","type":"uint256","internalType":"uint256"},{"name":"numerator","type":"uint256","internalType":"uint256"},{"name":"denominator","type":"uint256","internalType":"uint256"}]},{"type":"error","name":"ERC2981InvalidTokenRoyaltyReceiver","inputs":[{"name":"tokenId","type":"uint256","internalType":"uint256"},{"name":"receiver","type":"address","internalType":"address"}]},{"type":"error","name":"EnforcedPause","inputs":[]},{"type":"error","name":"ExpectedPause","inputs":[]},{"type":"error","name":"ReentrancyGuardReentrantCall","inputs":[]}],"bytecode":{"object":"0x60806040526103e8600a5534801562000016575f80fd5b50604051620031b8380380620031b88339810160408190526200003991620003d1565b60408051602081019091525f815262000052816200024d565b5060017f9b779b17422d0df92223018b32b4d1fa46e071723d6817e2486d003becc55f00556001600160a01b038316620000d35760405162461bcd60e51b815260206004820152601d60248201527f52696d6f77614163636573736f726965733a207a65726f2061646d696e00000060448201526064015b60405180910390fd5b6001600160a01b0382166200013c5760405162461bcd60e51b815260206004820152602860248201527f52696d6f77614163636573736f726965733a207a65726f20726f79616c7479206044820152673932b1b2b4bb32b960c11b6064820152608401620000ca565b6103e8816001600160601b03161115620001a45760405162461bcd60e51b815260206004820152602260248201527f52696d6f77614163636573736f726965733a20726f79616c74696573203e2031604482015261302560f01b6064820152608401620000ca565b620001b05f846200025f565b50620001dd7f9f2df0fed2c77648de5860a4cc508cd0818c85b8b8a1ab4ceeef8d981c8956a6846200025f565b506200020a7f592c958fd52390f51665f668ae132c07938e885cabed2dc56aba7c2b26488095846200025f565b50620002377f65d7a28e3265b37a6474929f336521b332c1681b933f6cb9f3376673440d862a846200025f565b506200024482826200030f565b50505062000591565b60026200025b8282620004c5565b5050565b5f8281526007602090815260408083206001600160a01b038516845290915281205460ff1662000306575f8381526007602090815260408083206001600160a01b03861684529091529020805460ff19166001179055620002bd3390565b6001600160a01b0316826001600160a01b0316847f2f8788117e7eff1d82e926ec794901d17c78024a50270940304540a733656f0d60405160405180910390a450600162000309565b505f5b92915050565b6127106001600160601b0382168110156200035057604051636f483d0960e01b81526001600160601b038316600482015260248101829052604401620000ca565b6001600160a01b0383166200037b57604051635b6cc80560e11b81525f6004820152602401620000ca565b50604080518082019091526001600160a01b039092168083526001600160601b039091166020909201829052600160a01b90910217600555565b80516001600160a01b0381168114620003cc575f80fd5b919050565b5f805f60608486031215620003e4575f80fd5b620003ef84620003b5565b9250620003ff60208501620003b5565b60408501519092506001600160601b03811681146200041c575f80fd5b809150509250925092565b634e487b7160e01b5f52604160045260245ffd5b600181811c908216806200045057607f821691505b6020821081036200046f57634e487b7160e01b5f52602260045260245ffd5b50919050565b601f821115620004c057805f5260205f20601f840160051c810160208510156200049c5750805b601f840160051c820191505b81811015620004bd575f8155600101620004a8565b50505b505050565b81516001600160401b03811115620004e157620004e162000427565b620004f981620004f284546200043b565b8462000475565b602080601f8311600181146200052f575f8415620005175750858301515b5f19600386901b1c1916600185901b17855562000589565b5f85815260208120601f198616915b828110156200055f578886015182559484019460019091019084016200053e565b50858210156200057d57878501515f19600388901b60f8161c191681555b505060018460011b0185555b505050505050565b612c19806200059f5f395ff3fe608060405234801561000f575f80fd5b50600436106101db575f3560e01c80634f558e7911610109578063a7427d681161009e578063d547741f1161006e578063d547741f14610454578063e63ab1e914610467578063e985e9c51461048e578063f242432a146104c9575f80fd5b8063a7427d68146103e8578063bd85b039146103fb578063d08607191461041a578063d53913931461042d575f80fd5b80638a003888116100d95780638a0038881461039b57806391d14854146103bb578063a217fddf146103ce578063a22cb465146103d5575f80fd5b80634f558e79146103545780635c975abb14610375578063731133e9146103805780638456cb5914610393575f80fd5b80632a55205a1161017f57806336568abe1161014f57806336568abe146103065780633f4ba83a1461031957806347fda41a146103215780634e1273f414610334575f80fd5b80632a55205a1461029b5780632eb2c2d6146102cd5780632f2ff15d146102e05780632fd9d6a1146102f3575f80fd5b806318160ddd116101ba57806318160ddd146102485780631f7fdffa146102505780632210023d14610265578063248a9ca314610279575f80fd5b8062fdd58e146101df57806301ffc9a7146102055780630e89341c14610228575b5f80fd5b6101f26101ed366004611f63565b6104dc565b6040519081526020015b60405180910390f35b610218610213366004611fa0565b610503565b60405190151581526020016101fc565b61023b610236366004611fbb565b61050d565b6040516101fc919061201f565b6004546101f2565b61026361025e3660046120ae565b6105e2565b005b6101f25f80516020612ba483398151915281565b6101f2610287366004611fbb565b5f9081526007602052604090206001015490565b6102ae6102a9366004612150565b61090a565b604080516001600160a01b0390931683526020830191909152016101fc565b6102636102db3660046122ad565b61098f565b6102636102ee36600461234f565b6109ae565b610263610301366004611fbb565b6109d8565b61026361031436600461234f565b610aa4565b610263610adc565b6101f261032f366004611fbb565b610b11565b610347610342366004612379565b610b47565b6040516101fc919061246c565b610218610362366004611fbb565b5f90815260036020526040902054151590565b60085460ff16610218565b61026361038e36600461247e565b610c11565b610263610dac565b6103ae6103a9366004611fbb565b610dde565b6040516101fc9190612514565b6102186103c936600461234f565b610efb565b6101f25f81565b6102636103e3366004612569565b610f25565b6102636103f63660046125a2565b610f34565b6101f2610409366004611fbb565b5f9081526003602052604090205490565b6101f26104283660046125f0565b6111bc565b6101f27f9f2df0fed2c77648de5860a4cc508cd0818c85b8b8a1ab4ceeef8d981c8956a681565b61026361046236600461234f565b6113ce565b6101f27f65d7a28e3265b37a6474929f336521b332c1681b933f6cb9f3376673440d862a81565b61021861049c366004612637565b6001600160a01b039182165f90815260016020908152604080832093909416825291909152205460ff1690565b6102636104d736600461265f565b6113f2565b5f818152602081815260408083206001600160a01b03861684529091529020545b92915050565b5f6104fd82611408565b5f81815260096020526040902060020154606090610100900460ff168061053f57505f82815260036020526040812054115b6105905760405162461bcd60e51b815260206004820181905260248201527f52696d6f77614163636573736f726965733a20756e6b6e6f776e20746f6b656e60448201526064015b60405180910390fd5b6040805180820182526007815266697066733a2f2f60c81b6020808301919091525f8581526009825283902092516105cc9360030191016126f6565b6040516020818303038152906040529050919050565b7f9f2df0fed2c77648de5860a4cc508cd0818c85b8b8a1ab4ceeef8d981c8956a661060c8161142c565b610614611436565b61061c61145c565b6001600160a01b0388166106425760405162461bcd60e51b815260040161058790612780565b85841461069c5760405162461bcd60e51b815260206004820152602260248201527f52696d6f77614163636573736f726965733a206c656e677468206d69736d61746044820152610c6d60f31b6064820152608401610587565b856106e95760405162461bcd60e51b815260206004820152601f60248201527f52696d6f77614163636573736f726965733a20656d70747920617272617973006044820152606401610587565b855f5b81811015610802575f60095f8b8b8581811061070a5761070a6127c7565b9050602002013581526020019081526020015f2090508060020160019054906101000a900460ff1661074e5760405162461bcd60e51b8152600401610587906127db565b5f888884818110610761576107616127c7565b90506020020135116107855760405162461bcd60e51b815260040161058790612823565b8054156107d45780548888848181106107a0576107a06127c7565b9050602002013582600101546107b6919061287c565b11156107d45760405162461bcd60e51b81526004016105879061288f565b8787838181106107e6576107e66127c7565b60019384018054602090920293909301350190915550016106ec565b506108a2898989808060200260200160405190810160405280939291908181526020018383602002808284375f9201919091525050604080516020808d0282810182019093528c82529093508c92508b9182918501908490808284375f9201919091525050604080516020601f8c018190048102820181019092528a815292508a91508990819084018382808284375f9201919091525061147792505050565b886001600160a01b03167f9f11e21b41a756f04f0a4fd1e17a9cb5ee35a566f9182418dab072186175a202898989896040516108e19493929190612909565b60405180910390a25061090060015f80516020612bc483398151915255565b5050505050505050565b5f82815260066020526040812080548291906001600160a01b03811690600160a01b90046001600160601b03168161095d5750506005546001600160a01b03811690600160a01b90046001600160601b03165b5f6127106109746001600160601b0384168961293a565b61097e9190612951565b9295509193505050505b9250929050565b61099a335b866114af565b6109a78585858585611527565b5050505050565b5f828152600760205260409020600101546109c88161142c565b6109d28383611587565b50505050565b5f80516020612ba48339815191526109ef8161142c565b5f82815260096020526040902060020154610100900460ff16610a605760405162461bcd60e51b815260206004820152602360248201527f52696d6f77614163636573736f726965733a20616c726561647920696e61637460448201526269766560e81b6064820152608401610587565b5f82815260096020526040808220600201805461ff00191690555183917f93fb689cf85e5190a32d24bb5daff20b4bfb691c7f844cd75bb4a707a1917d2c91a25050565b6001600160a01b0381163314610acd5760405163334bd91960e11b815260040160405180910390fd5b610ad78282611618565b505050565b7f65d7a28e3265b37a6474929f336521b332c1681b933f6cb9f3376673440d862a610b068161142c565b610b0e611683565b50565b5f81815260096020526040812080548203610b2f57505f1992915050565b60018101548154610b409190612970565b9392505050565b60608151835114610b785781518351604051635b05999160e01b815260048101929092526024820152604401610587565b5f83516001600160401b03811115610b9257610b92612170565b604051908082528060200260200182016040528015610bbb578160200160208202803683370190505b5090505f5b8451811015610c0957602080820286010151610be4906020808402870101516104dc565b828281518110610bf657610bf66127c7565b6020908102919091010152600101610bc0565b509392505050565b7f9f2df0fed2c77648de5860a4cc508cd0818c85b8b8a1ab4ceeef8d981c8956a6610c3b8161142c565b610c43611436565b610c4b61145c565b6001600160a01b038616610c715760405162461bcd60e51b815260040161058790612780565b5f8411610c905760405162461bcd60e51b815260040161058790612823565b5f8581526009602052604090206002810154610100900460ff16610cc65760405162461bcd60e51b8152600401610587906127db565b805415610cfd5780546001820154610cdf90879061287c565b1115610cfd5760405162461bcd60e51b81526004016105879061288f565b60018101805486019055604080516020601f8601819004810282018101909252848152610d4a918991899189919089908990819084018382808284375f920191909152506116d592505050565b866001600160a01b0316867edfe0b5c4cc51f2435b9bd7b2942547e2e45bef1193b941b6c86fd8b7c68e9987604051610d8591815260200190565b60405180910390a350610da460015f80516020612bc483398151915255565b505050505050565b7f65d7a28e3265b37a6474929f336521b332c1681b933f6cb9f3376673440d862a610dd68161142c565b610b0e611731565b610de6611f0c565b60095f8381526020019081526020015f206040518060a00160405290815f820154815260200160018201548152602001600282015f9054906101000a900460ff166001811115610e3857610e386124e0565b6001811115610e4957610e496124e0565b81526002820154610100900460ff1615156020820152600382018054604090920191610e74906126be565b80601f0160208091040260200160405190810160405280929190818152602001828054610ea0906126be565b8015610eeb5780601f10610ec257610100808354040283529160200191610eeb565b820191905f5260205f20905b815481529060010190602001808311610ece57829003601f168201915b5050505050815250509050919050565b5f9182526007602090815260408084206001600160a01b0393909316845291905290205460ff1690565b610f3033838361176e565b5050565b5f80516020612ba4833981519152610f4b8161142c565b5f85118015610f5b57506103e885105b610fbd5760405162461bcd60e51b815260206004820152602d60248201527f52696d6f77614163636573736f726965733a206163636573736f72792049442060448201526c6d75737420626520312d39393960981b6064820152608401610587565b5f85815260096020526040902060020154610100900460ff16156110385760405162461bcd60e51b815260206004820152602c60248201527f52696d6f77614163636573736f726965733a20746f6b656e207479706520616c60448201526b72656164792065786973747360a01b6064820152608401610587565b816110855760405162461bcd60e51b815260206004820152601c60248201527f52696d6f77614163636573736f726965733a20656d70747920434944000000006044820152606401610587565b6040518060a001604052808581526020015f81526020015f60018111156110ae576110ae6124e0565b815260200160011515815260200184848080601f0160208091040260200160405190810160405280939291908181526020018383808284375f920182905250939094525050878152600960209081526040918290208451815590840151600180830191909155918401516002820180549294509092909160ff191690838181111561113b5761113b6124e0565b021790555060608201516002820180549115156101000261ff00199092169190911790556080820151600382019061117390826129c7565b50905050847f22b201d2eddbc6457efc75dcfaa8118203da113eb155acd69af2c476fb9158fc5f8686866040516111ad9493929190612a82565b60405180910390a25050505050565b5f5f80516020612ba48339815191526111d48161142c565b5f85116112495760405162461bcd60e51b815260206004820152603760248201527f52696d6f77614163636573736f726965733a206c696d6974656420656469746960448201527f6f6e206d7573742068617665206d617820737570706c790000000000000000006064820152608401610587565b826112965760405162461bcd60e51b815260206004820152601c60248201527f52696d6f77614163636573736f726965733a20656d70747920434944000000006044820152606401610587565b600a805460018082019092556040805160a0810182528881525f6020820152919450909190820190815260200160011515815260200185858080601f0160208091040260200160405190810160405280939291908181526020018383808284375f920182905250939094525050848152600960209081526040918290208451815590840151600180830191909155918401516002820180549294509092909160ff191690838181111561134b5761134b6124e0565b021790555060608201516002820180549115156101000261ff00199092169190911790556080820151600382019061138390826129c7565b50905050817f22b201d2eddbc6457efc75dcfaa8118203da113eb155acd69af2c476fb9158fc60018787876040516113be9493929190612a82565b60405180910390a2509392505050565b5f828152600760205260409020600101546113e88161142c565b6109d28383611618565b6113fb33610994565b6109a7858585858561182b565b5f6001600160e01b03198216637965db0b60e01b14806104fd57506104fd826118b8565b610b0e81336118dc565b60085460ff161561145a5760405163d93c066560e01b815260040160405180910390fd5b565b611464611915565b60025f80516020612bc483398151915255565b6001600160a01b0384166114a057604051632bfa23e760e11b81525f6004820152602401610587565b6109d25f858585856001611944565b816001600160a01b0316816001600160a01b0316141580156114f657506001600160a01b038082165f9081526001602090815260408083209386168352929052205460ff16155b15610f305760405163711bec9160e11b81526001600160a01b03808416600483015282166024820152604401610587565b6001600160a01b03841661155057604051632bfa23e760e11b81525f6004820152602401610587565b6001600160a01b03851661157857604051626a0d4560e21b81525f6004820152602401610587565b6109a785858585856001611944565b5f6115928383610efb565b611611575f8381526007602090815260408083206001600160a01b03861684529091529020805460ff191660011790556115c93390565b6001600160a01b0316826001600160a01b0316847f2f8788117e7eff1d82e926ec794901d17c78024a50270940304540a733656f0d60405160405180910390a45060016104fd565b505f6104fd565b5f6116238383610efb565b15611611575f8381526007602090815260408083206001600160a01b0386168085529252808320805460ff1916905551339286917ff6391f5c32d9c69d2a47ea670b442974b53935d1edc7fd64eb21e047a839171b9190a45060016104fd565b61168b61199c565b6008805460ff191690557f5db9ee0a495bf2e6ff9c91a7834c1ba4fdd244a5e8aa4e537bd38aeae4b073aa335b6040516001600160a01b03909116815260200160405180910390a1565b6001600160a01b0384166116fe57604051632bfa23e760e11b81525f6004820152602401610587565b60408051600180825260208201869052818301908152606082018590526080820190925290610da45f8784848784611944565b611739611436565b6008805460ff191660011790557f62e78cea01bee320cd4e420270b5ea74000d11b0c9f74754ebdbfc544b05a2586116b83390565b6001600160a01b03831661179757604051631f18c42760e11b81525f6004820152602401610587565b6001600160a01b0382166117bf5760405162ced3e160e81b81525f6004820152602401610587565b6001600160a01b038381165f81815260016020908152604080832094871680845294825291829020805460ff191686151590811790915591519182527f17307eab39ab6107e8899845ad3d59bd9653f200f220920489ca2b5937696c31910160405180910390a3505050565b6001600160a01b03841661185457604051632bfa23e760e11b81525f6004820152602401610587565b6001600160a01b03851661187c57604051626a0d4560e21b81525f6004820152602401610587565b604080516001808252602082018690528183019081526060820185905260808201909252906118af87878484875f611944565b50505050505050565b5f6001600160e01b0319821663152a902d60e11b14806104fd57506104fd826119bf565b6118e68282610efb565b610f305760405163e2517d3f60e01b81526001600160a01b038216600482015260248101839052604401610587565b5f80516020612bc48339815191525460020361145a57604051633ee5aeb560e01b815260040160405180910390fd5b61195086868686611a0e565b6001600160a01b03851615610da45733811561197957611974818888888888611af5565b6118af565b60208581015190850151611991838a8a85858a611c16565b505050505050505050565b60085460ff1661145a57604051638dfc202b60e01b815260040160405180910390fd5b5f6001600160e01b03198216636cdb3d1360e11b14806119ef57506001600160e01b031982166303a24d0760e21b145b806104fd57506301ffc9a760e01b6001600160e01b03198316146104fd565b611a1a84848484611cfd565b6001600160a01b038416611a97575f805b8351811015611a7e5760208181028481018201519086018201515f908152600390925260408220805491928392611a6390849061287c565b90915550611a739050818461287c565b925050600101611a2b565b508060045f828254611a90919061287c565b9091555050505b6001600160a01b0383166109d2575f805b8351811015611ae45760208181028481018201519086018201515f90815260039092526040909120805482900390559190910190600101611aa8565b506004805491909103905550505050565b6001600160a01b0384163b15610da45760405163bc197c8160e01b81526001600160a01b0385169063bc197c8190611b399089908990889088908890600401612ac5565b6020604051808303815f875af1925050508015611b73575060408051601f3d908101601f19168201909252611b7091810190612b22565b60015b611bda573d808015611ba0576040519150601f19603f3d011682016040523d82523d5f602084013e611ba5565b606091505b5080515f03611bd257604051632bfa23e760e11b81526001600160a01b0386166004820152602401610587565b805160208201fd5b6001600160e01b0319811663bc197c8160e01b146118af57604051632bfa23e760e11b81526001600160a01b0386166004820152602401610587565b6001600160a01b0384163b15610da45760405163f23a6e6160e01b81526001600160a01b0385169063f23a6e6190611c5a9089908990889088908890600401612b3d565b6020604051808303815f875af1925050508015611c94575060408051601f3d908101601f19168201909252611c9191810190612b22565b60015b611cc1573d808015611ba0576040519150601f19603f3d011682016040523d82523d5f602084013e611ba5565b6001600160e01b0319811663f23a6e6160e01b146118af57604051632bfa23e760e11b81526001600160a01b0386166004820152602401610587565b8051825114611d2c5781518151604051635b05999160e01b815260048101929092526024820152604401610587565b335f5b8351811015611e2e576020818102858101820151908501909101516001600160a01b03881615611de0575f828152602081815260408083206001600160a01b038c16845290915290205481811015611dba576040516303dee4c560e01b81526001600160a01b038a166004820152602481018290526044810183905260648101849052608401610587565b5f838152602081815260408083206001600160a01b038d16845290915290209082900390555b6001600160a01b03871615611e24575f828152602081815260408083206001600160a01b038b16845290915281208054839290611e1e90849061287c565b90915550505b5050600101611d2f565b508251600103611eae5760208301515f906020840151909150856001600160a01b0316876001600160a01b0316846001600160a01b03167fc3d58168c5ae7397731d063d5bbf3d657854427343f4c083240f7aacaa2d0f628585604051611e9f929190918252602082015260400190565b60405180910390a450506109a7565b836001600160a01b0316856001600160a01b0316826001600160a01b03167f4a39dc06d4c0dbc64b70af90fd698a233a518aa5d07e595d983b8c0526c8f7fb8686604051611efd929190612b76565b60405180910390a45050505050565b6040518060a001604052805f81526020015f81526020015f6001811115611f3557611f356124e0565b81525f6020820152606060409091015290565b80356001600160a01b0381168114611f5e575f80fd5b919050565b5f8060408385031215611f74575f80fd5b611f7d83611f48565b946020939093013593505050565b6001600160e01b031981168114610b0e575f80fd5b5f60208284031215611fb0575f80fd5b8135610b4081611f8b565b5f60208284031215611fcb575f80fd5b5035919050565b5f5b83811015611fec578181015183820152602001611fd4565b50505f910152565b5f815180845261200b816020860160208601611fd2565b601f01601f19169290920160200192915050565b602081525f610b406020830184611ff4565b5f8083601f840112612041575f80fd5b5081356001600160401b03811115612057575f80fd5b6020830191508360208260051b8501011115610988575f80fd5b5f8083601f840112612081575f80fd5b5081356001600160401b03811115612097575f80fd5b602083019150836020828501011115610988575f80fd5b5f805f805f805f6080888a0312156120c4575f80fd5b6120cd88611f48565b965060208801356001600160401b03808211156120e8575f80fd5b6120f48b838c01612031565b909850965060408a013591508082111561210c575f80fd5b6121188b838c01612031565b909650945060608a0135915080821115612130575f80fd5b5061213d8a828b01612071565b989b979a50959850939692959293505050565b5f8060408385031215612161575f80fd5b50508035926020909101359150565b634e487b7160e01b5f52604160045260245ffd5b604051601f8201601f191681016001600160401b03811182821017156121ac576121ac612170565b604052919050565b5f6001600160401b038211156121cc576121cc612170565b5060051b60200190565b5f82601f8301126121e5575f80fd5b813560206121fa6121f5836121b4565b612184565b8083825260208201915060208460051b87010193508684111561221b575f80fd5b602086015b848110156122375780358352918301918301612220565b509695505050505050565b5f82601f830112612251575f80fd5b81356001600160401b0381111561226a5761226a612170565b61227d601f8201601f1916602001612184565b818152846020838601011115612291575f80fd5b816020850160208301375f918101602001919091529392505050565b5f805f805f60a086880312156122c1575f80fd5b6122ca86611f48565b94506122d860208701611f48565b935060408601356001600160401b03808211156122f3575f80fd5b6122ff89838a016121d6565b94506060880135915080821115612314575f80fd5b61232089838a016121d6565b93506080880135915080821115612335575f80fd5b5061234288828901612242565b9150509295509295909350565b5f8060408385031215612360575f80fd5b8235915061237060208401611f48565b90509250929050565b5f806040838503121561238a575f80fd5b82356001600160401b03808211156123a0575f80fd5b818501915085601f8301126123b3575f80fd5b813560206123c36121f5836121b4565b82815260059290921b840181019181810190898411156123e1575f80fd5b948201945b83861015612406576123f786611f48565b825294820194908201906123e6565b9650508601359250508082111561241b575f80fd5b50612428858286016121d6565b9150509250929050565b5f815180845260208085019450602084015f5b8381101561246157815187529582019590820190600101612445565b509495945050505050565b602081525f610b406020830184612432565b5f805f805f60808688031215612492575f80fd5b61249b86611f48565b9450602086013593506040860135925060608601356001600160401b038111156124c3575f80fd5b6124cf88828901612071565b969995985093965092949392505050565b634e487b7160e01b5f52602160045260245ffd5b6002811061251057634e487b7160e01b5f52602160045260245ffd5b9052565b6020815281516020820152602082015160408201525f604083015161253c60608401826124f4565b50606083015115156080830152608083015160a08084015261256160c0840182611ff4565b949350505050565b5f806040838503121561257a575f80fd5b61258383611f48565b915060208301358015158114612597575f80fd5b809150509250929050565b5f805f80606085870312156125b5575f80fd5b843593506020850135925060408501356001600160401b038111156125d8575f80fd5b6125e487828801612071565b95989497509550505050565b5f805f60408486031215612602575f80fd5b8335925060208401356001600160401b0381111561261e575f80fd5b61262a86828701612071565b9497909650939450505050565b5f8060408385031215612648575f80fd5b61265183611f48565b915061237060208401611f48565b5f805f805f60a08688031215612673575f80fd5b61267c86611f48565b945061268a60208701611f48565b9350604086013592506060860135915060808601356001600160401b038111156126b2575f80fd5b61234288828901612242565b600181811c908216806126d257607f821691505b6020821081036126f057634e487b7160e01b5f52602260045260245ffd5b50919050565b5f83516020612709828560208901611fd2565b81840191505f855461271a816126be565b60018281168015612732576001811461274757612771565b60ff1984168752821515830287019450612771565b895f5260205f205f5b8481101561276957815489820152908301908701612750565b505082870194505b50929998505050505050505050565b60208082526027908201527f52696d6f77614163636573736f726965733a206d696e7420746f207a65726f206040820152666164647265737360c81b606082015260800190565b634e487b7160e01b5f52603260045260245ffd5b60208082526028908201527f52696d6f77614163636573736f726965733a20746f6b656e2074797065206e6f604082015267742061637469766560c01b606082015260800190565b60208082526025908201527f52696d6f77614163636573736f726965733a20616d6f756e74206d7573742062604082015264065203e20360dc1b606082015260800190565b634e487b7160e01b5f52601160045260245ffd5b808201808211156104fd576104fd612868565b6020808252602a908201527f52696d6f77614163636573736f726965733a20776f756c6420657863656564206040820152696d617820737570706c7960b01b606082015260800190565b8183525f6001600160fb1b038311156128f0575f80fd5b8260051b80836020870137939093016020019392505050565b604081525f61291c6040830186886128d9565b828103602084015261292f8185876128d9565b979650505050505050565b80820281158282048414176104fd576104fd612868565b5f8261296b57634e487b7160e01b5f52601260045260245ffd5b500490565b818103818111156104fd576104fd612868565b601f821115610ad757805f5260205f20601f840160051c810160208510156129a85750805b601f840160051c820191505b818110156109a7575f81556001016129b4565b81516001600160401b038111156129e0576129e0612170565b6129f4816129ee84546126be565b84612983565b602080601f831160018114612a27575f8415612a105750858301515b5f19600386901b1c1916600185901b178555610da4565b5f85815260208120601f198616915b82811015612a5557888601518255948401946001909101908401612a36565b5085821015612a7257878501515f19600388901b60f8161c191681555b5050505050600190811b01905550565b612a8c81866124f4565b83602082015260606040820152816060820152818360808301375f818301608090810191909152601f909201601f191601019392505050565b6001600160a01b0386811682528516602082015260a0604082018190525f90612af090830186612432565b8281036060840152612b028186612432565b90508281036080840152612b168185611ff4565b98975050505050505050565b5f60208284031215612b32575f80fd5b8151610b4081611f8b565b6001600160a01b03868116825285166020820152604081018490526060810183905260a0608082018190525f9061292f90830184611ff4565b604081525f612b886040830185612432565b8281036020840152612b9a8185612432565b9594505050505056fe592c958fd52390f51665f668ae132c07938e885cabed2dc56aba7c2b264880959b779b17422d0df92223018b32b4d1fa46e071723d6817e2486d003becc55f00a2646970667358221220316bd45cdc0b92457eb9a48003422145028f5c4ff4c2f6f33a26d532c50b392964736f6c63430008180033","linkReferences":{}},"methodIdentifiers":{"COLLECTION_MANAGER_ROLE()":"2210023d","DEFAULT_ADMIN_ROLE()":"a217fddf","MINTER_ROLE()":"d5391393","PAUSER_ROLE()":"e63ab1e9","balanceOf(address,uint256)":"00fdd58e","balanceOfBatch(address[],uint256[])":"4e1273f4","createAccessoryType(uint256,uint256,string)":"a7427d68","createLimitedEdition(uint256,string)":"d0860719","deactivateCollection(uint256)":"2fd9d6a1","exists(uint256)":"4f558e79","getRoleAdmin(bytes32)":"248a9ca3","getTokenConfig(uint256)":"8a003888","grantRole(bytes32,address)":"2f2ff15d","hasRole(bytes32,address)":"91d14854","isApprovedForAll(address,address)":"e985e9c5","mint(address,uint256,uint256,bytes)":"731133e9","mintBatch(address,uint256[],uint256[],bytes)":"1f7fdffa","pause()":"8456cb59","paused()":"5c975abb","remainingSupply(uint256)":"47fda41a","renounceRole(bytes32,address)":"36568abe","revokeRole(bytes32,address)":"d547741f","royaltyInfo(uint256,uint256)":"2a55205a","safeBatchTransferFrom(address,address,uint256[],uint256[],bytes)":"2eb2c2d6","safeTransferFrom(address,address,uint256,uint256,bytes)":"f242432a","setApprovalForAll(address,bool)":"a22cb465","supportsInterface(bytes4)":"01ffc9a7","totalSupply()":"18160ddd","totalSupply(uint256)":"bd85b039","unpause()":"3f4ba83a","uri(uint256)":"0e89341c"},"id":60}