{"abi":[{"type":"constructor","inputs":[{"name":"initialAdmin","type":"address","internalType":"address"},{"name":"_passportContract","type":"address","internalType":"address"}],"stateMutability":"nonpayable"},{"type":"function","name":"DEFAULT_ADMIN_ROLE","inputs":[],"outputs":[{"name":"","type":"bytes32","internalType":"bytes32"}],"stateMutability":"view"},{"type":"function","name":"MINTER_ROLE","inputs":[],"outputs":[{"name":"","type":"bytes32","internalType":"bytes32"}],"stateMutability":"view"},{"type":"function","name":"PAUSER_ROLE","inputs":[],"outputs":[{"name":"","type":"bytes32","internalType":"bytes32"}],"stateMutability":"view"},{"type":"function","name":"SAV_OPERATOR_ROLE","inputs":[],"outputs":[{"name":"","type":"bytes32","internalType":"bytes32"}],"stateMutability":"view"},{"type":"function","name":"approve","inputs":[{"name":"to","type":"address","internalType":"address"},{"name":"tokenId","type":"uint256","internalType":"uint256"}],"outputs":[],"stateMutability":"nonpayable"},{"type":"function","name":"balanceOf","inputs":[{"name":"owner","type":"address","internalType":"address"}],"outputs":[{"name":"","type":"uint256","internalType":"uint256"}],"stateMutability":"view"},{"type":"function","name":"getApproved","inputs":[{"name":"tokenId","type":"uint256","internalType":"uint256"}],"outputs":[{"name":"","type":"address","internalType":"address"}],"stateMutability":"view"},{"type":"function","name":"getRepairHistory","inputs":[{"name":"soulboundId","type":"uint256","internalType":"uint256"}],"outputs":[{"name":"","type":"tuple[]","internalType":"struct RimowaSoulbound.RepairRecord[]","components":[{"name":"timestamp","type":"uint256","internalType":"uint256"},{"name":"workshopCid","type":"string","internalType":"string"},{"name":"description","type":"string","internalType":"string"}]}],"stateMutability":"view"},{"type":"function","name":"getRoleAdmin","inputs":[{"name":"role","type":"bytes32","internalType":"bytes32"}],"outputs":[{"name":"","type":"bytes32","internalType":"bytes32"}],"stateMutability":"view"},{"type":"function","name":"getSoulboundByPassport","inputs":[{"name":"passportTokenId","type":"uint256","internalType":"uint256"}],"outputs":[{"name":"","type":"uint256","internalType":"uint256"}],"stateMutability":"view"},{"type":"function","name":"getSoulboundData","inputs":[{"name":"soulboundId","type":"uint256","internalType":"uint256"}],"outputs":[{"name":"","type":"tuple","internalType":"struct RimowaSoulbound.SoulboundData","components":[{"name":"passportTokenId","type":"uint256","internalType":"uint256"},{"name":"memberSince","type":"uint256","internalType":"uint256"},{"name":"tier","type":"uint8","internalType":"enum RimowaSoulbound.MembershipTier"},{"name":"lifetimeWarrantyActive","type":"bool","internalType":"bool"},{"name":"repairCount","type":"uint256","internalType":"uint256"}]}],"stateMutability":"view"},{"type":"function","name":"grantRole","inputs":[{"name":"role","type":"bytes32","internalType":"bytes32"},{"name":"account","type":"address","internalType":"address"}],"outputs":[],"stateMutability":"nonpayable"},{"type":"function","name":"hasLifetimeWarranty","inputs":[{"name":"soulboundId","type":"uint256","internalType":"uint256"}],"outputs":[{"name":"","type":"bool","internalType":"bool"}],"stateMutability":"view"},{"type":"function","name":"hasRole","inputs":[{"name":"role","type":"bytes32","internalType":"bytes32"},{"name":"account","type":"address","internalType":"address"}],"outputs":[{"name":"","type":"bool","internalType":"bool"}],"stateMutability":"view"},{"type":"function","name":"isApprovedForAll","inputs":[{"name":"owner","type":"address","internalType":"address"},{"name":"operator","type":"address","internalType":"address"}],"outputs":[{"name":"","type":"bool","internalType":"bool"}],"stateMutability":"view"},{"type":"function","name":"locked","inputs":[{"name":"tokenId","type":"uint256","internalType":"uint256"}],"outputs":[{"name":"","type":"bool","internalType":"bool"}],"stateMutability":"view"},{"type":"function","name":"migrateSoulbound","inputs":[{"name":"passportTokenId","type":"uint256","internalType":"uint256"},{"name":"newOwner","type":"address","internalType":"address"},{"name":"ipfsCid","type":"string","internalType":"string"}],"outputs":[{"name":"newSoulboundId","type":"uint256","internalType":"uint256"}],"stateMutability":"nonpayable"},{"type":"function","name":"mintSoulbound","inputs":[{"name":"to","type":"address","internalType":"address"},{"name":"passportTokenId","type":"uint256","internalType":"uint256"},{"name":"ipfsCid","type":"string","internalType":"string"},{"name":"tier","type":"uint8","internalType":"enum RimowaSoulbound.MembershipTier"}],"outputs":[{"name":"soulboundId","type":"uint256","internalType":"uint256"}],"stateMutability":"nonpayable"},{"type":"function","name":"name","inputs":[],"outputs":[{"name":"","type":"string","internalType":"string"}],"stateMutability":"view"},{"type":"function","name":"ownerOf","inputs":[{"name":"tokenId","type":"uint256","internalType":"uint256"}],"outputs":[{"name":"","type":"address","internalType":"address"}],"stateMutability":"view"},{"type":"function","name":"passportContract","inputs":[],"outputs":[{"name":"","type":"address","internalType":"address"}],"stateMutability":"view"},{"type":"function","name":"pause","inputs":[],"outputs":[],"stateMutability":"nonpayable"},{"type":"function","name":"paused","inputs":[],"outputs":[{"name":"","type":"bool","internalType":"bool"}],"stateMutability":"view"},{"type":"function","name":"recordRepair","inputs":[{"name":"soulboundId","type":"uint256","internalType":"uint256"},{"name":"workshopCid","type":"string","internalType":"string"},{"name":"description","type":"string","internalType":"string"}],"outputs":[],"stateMutability":"nonpayable"},{"type":"function","name":"renounceRole","inputs":[{"name":"role","type":"bytes32","internalType":"bytes32"},{"name":"callerConfirmation","type":"address","internalType":"address"}],"outputs":[],"stateMutability":"nonpayable"},{"type":"function","name":"revokeRole","inputs":[{"name":"role","type":"bytes32","internalType":"bytes32"},{"name":"account","type":"address","internalType":"address"}],"outputs":[],"stateMutability":"nonpayable"},{"type":"function","name":"safeTransferFrom","inputs":[{"name":"from","type":"address","internalType":"address"},{"name":"to","type":"address","internalType":"address"},{"name":"tokenId","type":"uint256","internalType":"uint256"}],"outputs":[],"stateMutability":"nonpayable"},{"type":"function","name":"safeTransferFrom","inputs":[{"name":"from","type":"address","internalType":"address"},{"name":"to","type":"address","internalType":"address"},{"name":"tokenId","type":"uint256","internalType":"uint256"},{"name":"data","type":"bytes","internalType":"bytes"}],"outputs":[],"stateMutability":"nonpayable"},{"type":"function","name":"setApprovalForAll","inputs":[{"name":"operator","type":"address","internalType":"address"},{"name":"approved","type":"bool","internalType":"bool"}],"outputs":[],"stateMutability":"nonpayable"},{"type":"function","name":"setPassportContract","inputs":[{"name":"_passportContract","type":"address","internalType":"address"}],"outputs":[],"stateMutability":"nonpayable"},{"type":"function","name":"supportsInterface","inputs":[{"name":"interfaceId","type":"bytes4","internalType":"bytes4"}],"outputs":[{"name":"","type":"bool","internalType":"bool"}],"stateMutability":"view"},{"type":"function","name":"symbol","inputs":[],"outputs":[{"name":"","type":"string","internalType":"string"}],"stateMutability":"view"},{"type":"function","name":"tokenURI","inputs":[{"name":"tokenId","type":"uint256","internalType":"uint256"}],"outputs":[{"name":"","type":"string","internalType":"string"}],"stateMutability":"view"},{"type":"function","name":"transferFrom","inputs":[{"name":"from","type":"address","internalType":"address"},{"name":"to","type":"address","internalType":"address"},{"name":"tokenId","type":"uint256","internalType":"uint256"}],"outputs":[],"stateMutability":"nonpayable"},{"type":"function","name":"unpause","inputs":[],"outputs":[],"stateMutability":"nonpayable"},{"type":"function","name":"upgradeTier","inputs":[{"name":"soulboundId","type":"uint256","internalType":"uint256"},{"name":"newTier","type":"uint8","internalType":"enum RimowaSoulbound.MembershipTier"}],"outputs":[],"stateMutability":"nonpayable"},{"type":"event","name":"Approval","inputs":[{"name":"owner","type":"address","indexed":true,"internalType":"address"},{"name":"approved","type":"address","indexed":true,"internalType":"address"},{"name":"tokenId","type":"uint256","indexed":true,"internalType":"uint256"}],"anonymous":false},{"type":"event","name":"ApprovalForAll","inputs":[{"name":"owner","type":"address","indexed":true,"internalType":"address"},{"name":"operator","type":"address","indexed":true,"internalType":"address"},{"name":"approved","type":"bool","indexed":false,"internalType":"bool"}],"anonymous":false},{"type":"event","name":"Locked","inputs":[{"name":"tokenId","type":"uint256","indexed":false,"internalType":"uint256"}],"anonymous":false},{"type":"event","name":"PassportContractSet","inputs":[{"name":"contractAddress","type":"address","indexed":true,"internalType":"address"}],"anonymous":false},{"type":"event","name":"Paused","inputs":[{"name":"account","type":"address","indexed":false,"internalType":"address"}],"anonymous":false},{"type":"event","name":"RepairRecorded","inputs":[{"name":"soulboundId","type":"uint256","indexed":true,"internalType":"uint256"},{"name":"repairIndex","type":"uint256","indexed":false,"internalType":"uint256"},{"name":"workshopCid","type":"string","indexed":false,"internalType":"string"}],"anonymous":false},{"type":"event","name":"RoleAdminChanged","inputs":[{"name":"role","type":"bytes32","indexed":true,"internalType":"bytes32"},{"name":"previousAdminRole","type":"bytes32","indexed":true,"internalType":"bytes32"},{"name":"newAdminRole","type":"bytes32","indexed":true,"internalType":"bytes32"}],"anonymous":false},{"type":"event","name":"RoleGranted","inputs":[{"name":"role","type":"bytes32","indexed":true,"internalType":"bytes32"},{"name":"account","type":"address","indexed":true,"internalType":"address"},{"name":"sender","type":"address","indexed":true,"internalType":"address"}],"anonymous":false},{"type":"event","name":"RoleRevoked","inputs":[{"name":"role","type":"bytes32","indexed":true,"internalType":"bytes32"},{"name":"account","type":"address","indexed":true,"internalType":"address"},{"name":"sender","type":"address","indexed":true,"internalType":"address"}],"anonymous":false},{"type":"event","name":"SoulboundBurned","inputs":[{"name":"soulboundId","type":"uint256","indexed":true,"internalType":"uint256"},{"name":"previousOwner","type":"address","indexed":true,"internalType":"address"}],"anonymous":false},{"type":"event","name":"SoulboundMinted","inputs":[{"name":"soulboundId","type":"uint256","indexed":true,"internalType":"uint256"},{"name":"passportTokenId","type":"uint256","indexed":true,"internalType":"uint256"},{"name":"owner","type":"address","indexed":true,"internalType":"address"},{"name":"tier","type":"uint8","indexed":false,"internalType":"enum RimowaSoulbound.MembershipTier"}],"anonymous":false},{"type":"event","name":"SoulboundTransferred","inputs":[{"name":"passportTokenId","type":"uint256","indexed":true,"internalType":"uint256"},{"name":"previousOwner","type":"address","indexed":true,"internalType":"address"},{"name":"newOwner","type":"address","indexed":true,"internalType":"address"},{"name":"newSoulboundId","type":"uint256","indexed":false,"internalType":"uint256"}],"anonymous":false},{"type":"event","name":"TierUpgraded","inputs":[{"name":"soulboundId","type":"uint256","indexed":true,"internalType":"uint256"},{"name":"oldTier","type":"uint8","indexed":false,"internalType":"enum RimowaSoulbound.MembershipTier"},{"name":"newTier","type":"uint8","indexed":false,"internalType":"enum RimowaSoulbound.MembershipTier"}],"anonymous":false},{"type":"event","name":"Transfer","inputs":[{"name":"from","type":"address","indexed":true,"internalType":"address"},{"name":"to","type":"address","indexed":true,"internalType":"address"},{"name":"tokenId","type":"uint256","indexed":true,"internalType":"uint256"}],"anonymous":false},{"type":"event","name":"Unlocked","inputs":[{"name":"tokenId","type":"uint256","indexed":false,"internalType":"uint256"}],"anonymous":false},{"type":"event","name":"Unpaused","inputs":[{"name":"account","type":"address","indexed":false,"internalType":"address"}],"anonymous":false},{"type":"error","name":"AccessControlBadConfirmation","inputs":[]},{"type":"error","name":"AccessControlUnauthorizedAccount","inputs":[{"name":"account","type":"address","internalType":"address"},{"name":"neededRole","type":"bytes32","internalType":"bytes32"}]},{"type":"error","name":"ERC721IncorrectOwner","inputs":[{"name":"sender","type":"address","internalType":"address"},{"name":"tokenId","type":"uint256","internalType":"uint256"},{"name":"owner","type":"address","internalType":"address"}]},{"type":"error","name":"ERC721InsufficientApproval","inputs":[{"name":"operator","type":"address","internalType":"address"},{"name":"tokenId","type":"uint256","internalType":"uint256"}]},{"type":"error","name":"ERC721InvalidApprover","inputs":[{"name":"approver","type":"address","internalType":"address"}]},{"type":"error","name":"ERC721InvalidOperator","inputs":[{"name":"operator","type":"address","internalType":"address"}]},{"type":"error","name":"ERC721InvalidOwner","inputs":[{"name":"owner","type":"address","internalType":"address"}]},{"type":"error","name":"ERC721InvalidReceiver","inputs":[{"name":"receiver","type":"address","internalType":"address"}]},{"type":"error","name":"ERC721InvalidSender","inputs":[{"name":"sender","type":"address","internalType":"address"}]},{"type":"error","name":"ERC721NonexistentToken","inputs":[{"name":"tokenId","type":"uint256","internalType":"uint256"}]},{"type":"error","name":"EnforcedPause","inputs":[]},{"type":"error","name":"ExpectedPause","inputs":[]}],"bytecode":{"object":"0x608060405234801562000010575f80fd5b5060405162002c4238038062002c428339810160408190526200003391620002c2565b6040518060400160405280601981526020017f52494d4f574120536f756c626f756e64204964656e7469747900000000000000815250604051806040016040528060048152602001635244534960e01b815250815f908162000096919062000396565b506001620000a5828262000396565b5050506001600160a01b038216620001035760405162461bcd60e51b815260206004820152601b60248201527f52696d6f7761536f756c626f756e643a207a65726f2061646d696e0000000000604482015260640160405180910390fd5b6200010f5f83620001f6565b506200013c7f9f2df0fed2c77648de5860a4cc508cd0818c85b8b8a1ab4ceeef8d981c8956a683620001f6565b50620001697f463226a93607e5ad3ce45d8edd6b4e6f708d22f149d060bc823db2a0dbc9fc3b83620001f6565b50620001967f65d7a28e3265b37a6474929f336521b332c1681b933f6cb9f3376673440d862a83620001f6565b506001600160a01b03811615620001ee57600c80546001600160a01b0319166001600160a01b0383169081179091556040517f94b779a122b8fc3e9494e9567ea216f91e1309b4373c7a905c42774efc9436f9905f90a25b505062000462565b5f8281526006602090815260408083206001600160a01b038516845290915281205460ff166200029d575f8381526006602090815260408083206001600160a01b03861684529091529020805460ff19166001179055620002543390565b6001600160a01b0316826001600160a01b0316847f2f8788117e7eff1d82e926ec794901d17c78024a50270940304540a733656f0d60405160405180910390a4506001620002a0565b505f5b92915050565b80516001600160a01b0381168114620002bd575f80fd5b919050565b5f8060408385031215620002d4575f80fd5b620002df83620002a6565b9150620002ef60208401620002a6565b90509250929050565b634e487b7160e01b5f52604160045260245ffd5b600181811c908216806200032157607f821691505b6020821081036200034057634e487b7160e01b5f52602260045260245ffd5b50919050565b601f8211156200039157805f5260205f20601f840160051c810160208510156200036d5750805b601f840160051c820191505b818110156200038e575f815560010162000379565b50505b505050565b81516001600160401b03811115620003b257620003b2620002f8565b620003ca81620003c384546200030c565b8462000346565b602080601f83116001811462000400575f8415620003e85750858301515b5f19600386901b1c1916600185901b1785556200045a565b5f85815260208120601f198616915b8281101562000430578886015182559484019460019091019084016200040f565b50858210156200044e57878501515f19600388901b60f8161c191681555b505060018460011b0185555b505050505050565b6127d280620004705f395ff3fe608060405234801561000f575f80fd5b5060043610610213575f3560e01c806370a082311161011f578063b585ffee116100a9578063d539139311610079578063d5391393146104b7578063d547741f146104cb578063e63ab1e9146104de578063e985e9c514610505578063fb75f8ce14610518575f80fd5b8063b585ffee1461045f578063b88d4fde14610472578063c87b56dd14610485578063cf80c40914610498575f80fd5b806395d89b41116100ef57806395d89b4114610417578063a217fddf1461041f578063a22cb46514610426578063ab9027b014610439578063b45a3c0e1461044c575f80fd5b806370a08231146103d65780638456cb59146103e957806385283d40146103f157806391d1485414610404575f80fd5b80632f2ff15d116101a057806342842e0e1161017057806342842e0e1461035e5780634e54df1a146103715780635c975abb146103915780636352211e1461039c5780636cf1af08146103af575f80fd5b80632f2ff15d1461031d57806336568abe1461033057806336f005aa146103435780633f4ba83a14610356575f80fd5b80630d39dda6116101e65780630d39dda61461029457806323b872dd146102a7578063248a9ca3146102ba578063266e4572146102ea578063268653181461030a575f80fd5b806301ffc9a71461021757806306fdde031461023f578063081812fc14610254578063095ea7b31461027f575b5f80fd5b61022a610225366004611e59565b61052b565b60405190151581526020015b60405180910390f35b610247610555565b6040516102369190611ec1565b610267610262366004611ed3565b6105e4565b6040516001600160a01b039091168152602001610236565b61029261028d366004611f05565b61060b565b005b6102926102a2366004611f2d565b61061a565b6102926102b5366004611f46565b6106c9565b6102dc6102c8366004611ed3565b5f9081526006602052604090206001015490565b604051908152602001610236565b6102fd6102f8366004611ed3565b610752565b6040516102369190611f7f565b6102dc610318366004612063565b6108e8565b61029261032b3660046120cd565b610c2e565b61029261033e3660046120cd565b610c52565b6102926103513660046120f7565b610c8a565b610292610e33565b61029261036c366004611f46565b610e68565b61038461037f366004611ed3565b610e82565b604051610236919061214c565b60075460ff1661022a565b6102676103aa366004611ed3565b610f3d565b6102dc7f463226a93607e5ad3ce45d8edd6b4e6f708d22f149d060bc823db2a0dbc9fc3b81565b6102dc6103e4366004611f2d565b610f47565b610292610f8c565b6102926103ff366004612190565b610fbe565b61022a6104123660046120cd565b6111f7565b610247611221565b6102dc5f81565b610292610434366004612204565b611230565b600c54610267906001600160a01b031681565b61022a61045a366004611ed3565b61123b565b61022a61046d366004611ed3565b611274565b610292610480366004612251565b6112ae565b610247610493366004611ed3565b6112c6565b6102dc6104a6366004611ed3565b5f908152600b602052604090205490565b6102dc5f8051602061277d83398151915281565b6102926104d93660046120cd565b611347565b6102dc7f65d7a28e3265b37a6474929f336521b332c1681b933f6cb9f3376673440d862a81565b61022a610513366004612326565b61136b565b6102dc61052636600461234e565b611398565b5f6001600160e01b03198216635a2d1e0760e11b148061054f575061054f8261150c565b92915050565b60605f8054610563906123a4565b80601f016020809104026020016040519081016040528092919081815260200182805461058f906123a4565b80156105da5780601f106105b1576101008083540402835291602001916105da565b820191905f5260205f20905b8154815290600101906020018083116105bd57829003601f168201915b5050505050905090565b5f6105ee82611530565b505f828152600460205260409020546001600160a01b031661054f565b610616828233611567565b5050565b5f61062481611574565b6001600160a01b03821661067f5760405162461bcd60e51b815260206004820152601d60248201527f52696d6f7761536f756c626f756e643a207a65726f206164647265737300000060448201526064015b60405180910390fd5b600c80546001600160a01b0319166001600160a01b0384169081179091556040517f94b779a122b8fc3e9494e9567ea216f91e1309b4373c7a905c42774efc9436f9905f90a25050565b6001600160a01b0382166106f257604051633250574960e11b81525f6004820152602401610676565b5f6106fe83833361157e565b9050836001600160a01b0316816001600160a01b03161461074c576040516364283d7b60e01b81526001600160a01b0380861660048301526024820184905282166044820152606401610676565b50505050565b6060600a5f8381526020019081526020015f20805480602002602001604051908101604052809291908181526020015f905b828210156108dd578382905f5260205f2090600302016040518060600160405290815f82015481526020016001820180546107be906123a4565b80601f01602080910402602001604051908101604052809291908181526020018280546107ea906123a4565b80156108355780601f1061080c57610100808354040283529160200191610835565b820191905f5260205f20905b81548152906001019060200180831161081857829003601f168201915b5050505050815260200160028201805461084e906123a4565b80601f016020809104026020016040519081016040528092919081815260200182805461087a906123a4565b80156108c55780601f1061089c576101008083540402835291602001916108c5565b820191905f5260205f20905b8154815290600101906020018083116108a857829003601f168201915b50505050508152505081526020019060010190610784565b505050509050919050565b5f5f8051602061277d83398151915261090081611574565b610908611621565b6001600160a01b03871661096c5760405162461bcd60e51b815260206004820152602560248201527f52696d6f7761536f756c626f756e643a206d696e7420746f207a65726f206164604482015264647265737360d81b6064820152608401610676565b836109b95760405162461bcd60e51b815260206004820152601a60248201527f52696d6f7761536f756c626f756e643a20656d707479204349440000000000006044820152606401610676565b5f8360038111156109cc576109cc612118565b03610a195760405162461bcd60e51b815260206004820152601d60248201527f52696d6f7761536f756c626f756e643a20696e76616c696420746965720000006044820152606401610676565b5f868152600b60205260409020548015801590610a4757505f610a3b82611647565b6001600160a01b031614155b15610ac0575f610a5682611647565b9050610a6182611661565b5f828152600960205260408082208281556001810183905560028101805461ffff19169055600301829055516001600160a01b0383169184917f5229ae87d5a828c62814ee07243ce7d5d59948e25f32d90b5f370e6c9588163d9190a3505b60088054600101908190559250610ad78884611699565b6040518060a00160405280888152602001428152602001856003811115610b0057610b00612118565b8152600160208083018290525f604093840181905287815260098252839020845181559084015181830155918301516002830180549192909160ff191690836003811115610b5057610b50612118565b021790555060608201516002820180549115156101000261ff00199092169190911790556080909101516003909101555f838152600d60205260409020610b98868883612420565b505f878152600b602052604090819020849055516001600160a01b03891690889085907f4a77c4d0fd7b4018198f3970266faae0b967c29f42941eb73622bd7edc588ec190610be89089906124da565b60405180910390a46040518381527f032bc66be43dbccb7487781d168eb7bda224628a3b2c3388bdf69b532a3a16119060200160405180910390a1505095945050505050565b5f82815260066020526040902060010154610c4881611574565b61074c83836116b2565b6001600160a01b0381163314610c7b5760405163334bd91960e11b815260040160405180910390fd5b610c858282611743565b505050565b5f8051602061277d833981519152610ca181611574565b5f610cab84611647565b6001600160a01b031603610cd15760405162461bcd60e51b8152600401610676906124e8565b5f826003811115610ce457610ce4612118565b03610d315760405162461bcd60e51b815260206004820152601d60248201527f52696d6f7761536f756c626f756e643a20696e76616c696420746965720000006044820152606401610676565b5f838152600960205260409020600281015460ff16806003811115610d5857610d58612118565b60ff16846003811115610d6d57610d6d612118565b60ff1611610dcc5760405162461bcd60e51b815260206004820152602660248201527f52696d6f7761536f756c626f756e643a2063616e206f6e6c792075706772616460448201526532903a34b2b960d11b6064820152608401610676565b60028201805485919060ff19166001836003811115610ded57610ded612118565b0217905550847f57ceb88011b120a0441a16383dc232e775510168ab27978582d21c610a6e42478286604051610e2492919061252d565b60405180910390a25050505050565b7f65d7a28e3265b37a6474929f336521b332c1681b933f6cb9f3376673440d862a610e5d81611574565b610e656117ae565b50565b610c8583838360405180602001604052805f8152506112ae565b610e8a611e08565b5f610e9483611647565b6001600160a01b031603610eba5760405162461bcd60e51b8152600401610676906124e8565b5f82815260096020908152604091829020825160a081018452815481526001820154928101929092526002810154919290919083019060ff166003811115610f0457610f04612118565b6003811115610f1557610f15612118565b81526002820154610100900460ff161515602082015260039091015460409091015292915050565b5f61054f82611530565b5f6001600160a01b038216610f71576040516322718ad960e21b81525f6004820152602401610676565b506001600160a01b03165f9081526003602052604090205490565b7f65d7a28e3265b37a6474929f336521b332c1681b933f6cb9f3376673440d862a610fb681611574565b610e65611800565b7f463226a93607e5ad3ce45d8edd6b4e6f708d22f149d060bc823db2a0dbc9fc3b610fe881611574565b5f610ff287611647565b6001600160a01b0316036110185760405162461bcd60e51b8152600401610676906124e8565b836110655760405162461bcd60e51b815260206004820152601a60248201527f52696d6f7761536f756c626f756e643a20656d707479204349440000000000006044820152606401610676565b816110bd5760405162461bcd60e51b815260206004820152602260248201527f52696d6f7761536f756c626f756e643a20656d7074792064657363726970746960448201526137b760f11b6064820152608401610676565b5f8681526009602090815260408083206003810154600a84529382902082516060810184524281528351601f8b018690048602810186019094528984529194939092828201918b908b90819084018382808284375f92019190915250505090825250604080516020601f8a01819004810282018101909252888152918101919089908990819084018382808284375f92018290525093909452505083546001818101865594825260209182902084516003909202019081559083015192939092908301915061118c9082612548565b50604082015160028201906111a19082612548565b505050600382018054600101905560405188907ffb6fd8af7a9d31aebc18a57cdc0ab4108ac75dee4f2d399f59c2fd5bcc3c9c8f906111e59084908b908b9061262c565b60405180910390a25050505050505050565b5f9182526006602090815260408084206001600160a01b0393909316845291905290205460ff1690565b606060018054610563906123a4565b61061633838361183d565b5f8061124683611647565b6001600160a01b03160361126c5760405162461bcd60e51b8152600401610676906124e8565b506001919050565b5f8061127f83611647565b6001600160a01b03161415801561054f5750505f90815260096020526040902060020154610100900460ff1690565b6112b98484846106c9565b61074c3385858585611904565b60605f6112d283611647565b6001600160a01b0316036112f85760405162461bcd60e51b8152600401610676906124e8565b6040805180820182526007815266697066733a2f2f60c81b6020808301919091525f858152600d8252839020925161133193910161264e565b6040516020818303038152906040529050919050565b5f8281526006602052604090206001015461136181611574565b61074c8383611743565b6001600160a01b039182165f90815260056020908152604080832093909416825291909152205460ff1690565b5f5f8051602061277d8339815191526113b081611574565b6001600160a01b0385166114065760405162461bcd60e51b815260206004820152601d60248201527f52696d6f7761536f756c626f756e643a207a65726f20616464726573730000006044820152606401610676565b5f868152600b6020526040812054801580159061143457505f61142882611647565b6001600160a01b031614155b156114455761144281611647565b91505b6040516304d0ca6360e31b81523090632686531890611471908a908c908b908b906001906004016126d8565b6020604051808303815f875af115801561148d573d5f803e3d5ffd5b505050506040513d601f19601f820116820180604052508101906114b19190612718565b9350866001600160a01b0316826001600160a01b0316897f4acb699a5e7175d14d82f0b159847a52552d2d426d62ec22c0ce268e4efb9902876040516114f991815260200190565b60405180910390a4505050949350505050565b5f6001600160e01b03198216637965db0b60e01b148061054f575061054f82611a2c565b5f8061153b83611647565b90506001600160a01b03811661054f57604051637e27328960e01b815260048101849052602401610676565b610c858383836001611a7b565b610e658133611b7f565b5f8061158984611647565b90506001600160a01b038116158015906115ab57506001600160a01b03851615155b1561160b5760405162461bcd60e51b815260206004820152602a60248201527f52696d6f7761536f756c626f756e643a20746f6b656e206973206e6f6e2d7472604482015269616e7366657261626c6560b01b6064820152608401610676565b611616858585611bb8565b9150505b9392505050565b60075460ff16156116455760405163d93c066560e01b815260040160405180910390fd5b565b5f908152600260205260409020546001600160a01b031690565b5f61166d5f835f61157e565b90506001600160a01b03811661061657604051637e27328960e01b815260048101839052602401610676565b610616828260405180602001604052805f815250611ca5565b5f6116bd83836111f7565b61173c575f8381526006602090815260408083206001600160a01b03861684529091529020805460ff191660011790556116f43390565b6001600160a01b0316826001600160a01b0316847f2f8788117e7eff1d82e926ec794901d17c78024a50270940304540a733656f0d60405160405180910390a450600161054f565b505f61054f565b5f61174e83836111f7565b1561173c575f8381526006602090815260408083206001600160a01b0386168085529252808320805460ff1916905551339286917ff6391f5c32d9c69d2a47ea670b442974b53935d1edc7fd64eb21e047a839171b9190a450600161054f565b6117b6611cbc565b6007805460ff191690557f5db9ee0a495bf2e6ff9c91a7834c1ba4fdd244a5e8aa4e537bd38aeae4b073aa335b6040516001600160a01b03909116815260200160405180910390a1565b611808611621565b6007805460ff191660011790557f62e78cea01bee320cd4e420270b5ea74000d11b0c9f74754ebdbfc544b05a2586117e33390565b6001600160a01b0383166118665760405163a9fbf51f60e01b81525f6004820152602401610676565b6001600160a01b03821661189857604051630b61174360e31b81526001600160a01b0383166004820152602401610676565b6001600160a01b038381165f81815260056020908152604080832094871680845294825291829020805460ff191686151590811790915591519182527f17307eab39ab6107e8899845ad3d59bd9653f200f220920489ca2b5937696c31910160405180910390a3505050565b6001600160a01b0383163b15611a2557604051630a85bd0160e11b81526001600160a01b0384169063150b7a029061194690889088908790879060040161272f565b6020604051808303815f875af1925050508015611980575060408051601f3d908101601f1916820190925261197d91810190612761565b60015b6119e7573d8080156119ad576040519150601f19603f3d011682016040523d82523d5f602084013e6119b2565b606091505b5080515f036119df57604051633250574960e11b81526001600160a01b0385166004820152602401610676565b805160208201fd5b6001600160e01b03198116630a85bd0160e11b14611a2357604051633250574960e11b81526001600160a01b0385166004820152602401610676565b505b5050505050565b5f6001600160e01b031982166380ac58cd60e01b1480611a5c57506001600160e01b03198216635b5e139f60e01b145b8061054f57506301ffc9a760e01b6001600160e01b031983161461054f565b8080611a8f57506001600160a01b03821615155b15611b50575f611a9e84611530565b90506001600160a01b03831615801590611aca5750826001600160a01b0316816001600160a01b031614155b8015611add5750611adb818461136b565b155b15611b065760405163a9fbf51f60e01b81526001600160a01b0384166004820152602401610676565b8115611b4e5783856001600160a01b0316826001600160a01b03167f8c5be1e5ebec7d5bd14f71427d1e84f3dd0314c0f7b2291e5b200ac8c7c3b92560405160405180910390a45b505b50505f90815260046020526040902080546001600160a01b0319166001600160a01b0392909216919091179055565b611b8982826111f7565b6106165760405163e2517d3f60e01b81526001600160a01b038216600482015260248101839052604401610676565b5f80611bc384611647565b90506001600160a01b03831615611bdf57611bdf818486611cdf565b6001600160a01b03811615611c1957611bfa5f855f80611a7b565b6001600160a01b0381165f90815260036020526040902080545f190190555b6001600160a01b03851615611c47576001600160a01b0385165f908152600360205260409020805460010190555b5f8481526002602052604080822080546001600160a01b0319166001600160a01b0389811691821790925591518793918516917fddf252ad1be2c89b69c2b068fc378daa952ba7f163c4a11628f55a4df523b3ef91a4949350505050565b611caf8383611d43565b610c85335f858585611904565b60075460ff1661164557604051638dfc202b60e01b815260040160405180910390fd5b611cea838383611da4565b610c85576001600160a01b038316611d1857604051637e27328960e01b815260048101829052602401610676565b60405163177e802f60e01b81526001600160a01b038316600482015260248101829052604401610676565b6001600160a01b038216611d6c57604051633250574960e11b81525f6004820152602401610676565b5f611d7883835f61157e565b90506001600160a01b03811615610c85576040516339e3563760e11b81525f6004820152602401610676565b5f6001600160a01b03831615801590611e005750826001600160a01b0316846001600160a01b03161480611ddd5750611ddd848461136b565b80611e0057505f828152600460205260409020546001600160a01b038481169116145b949350505050565b6040518060a001604052805f81526020015f81526020015f6003811115611e3157611e31612118565b81525f6020820181905260409091015290565b6001600160e01b031981168114610e65575f80fd5b5f60208284031215611e69575f80fd5b813561161a81611e44565b5f5b83811015611e8e578181015183820152602001611e76565b50505f910152565b5f8151808452611ead816020860160208601611e74565b601f01601f19169290920160200192915050565b602081525f61161a6020830184611e96565b5f60208284031215611ee3575f80fd5b5035919050565b80356001600160a01b0381168114611f00575f80fd5b919050565b5f8060408385031215611f16575f80fd5b611f1f83611eea565b946020939093013593505050565b5f60208284031215611f3d575f80fd5b61161a82611eea565b5f805f60608486031215611f58575f80fd5b611f6184611eea565b9250611f6f60208501611eea565b9150604084013590509250925092565b5f60208083018184528085518083526040925060408601915060408160051b8701018488015f5b8381101561200257603f19898403018552815160608151855288820151818a870152611fd482870182611e96565b91505087820151915084810388860152611fee8183611e96565b968901969450505090860190600101611fa6565b509098975050505050505050565b5f8083601f840112612020575f80fd5b50813567ffffffffffffffff811115612037575f80fd5b60208301915083602082850101111561204e575f80fd5b9250929050565b803560048110611f00575f80fd5b5f805f805f60808688031215612077575f80fd5b61208086611eea565b945060208601359350604086013567ffffffffffffffff8111156120a2575f80fd5b6120ae88828901612010565b90945092506120c1905060608701612055565b90509295509295909350565b5f80604083850312156120de575f80fd5b823591506120ee60208401611eea565b90509250929050565b5f8060408385031215612108575f80fd5b823591506120ee60208401612055565b634e487b7160e01b5f52602160045260245ffd5b6004811061214857634e487b7160e01b5f52602160045260245ffd5b9052565b5f60a08201905082518252602083015160208301526040830151612173604084018261212c565b506060830151151560608301526080830151608083015292915050565b5f805f805f606086880312156121a4575f80fd5b85359450602086013567ffffffffffffffff808211156121c2575f80fd5b6121ce89838a01612010565b909650945060408801359150808211156121e6575f80fd5b506121f388828901612010565b969995985093965092949392505050565b5f8060408385031215612215575f80fd5b61221e83611eea565b915060208301358015158114612232575f80fd5b809150509250929050565b634e487b7160e01b5f52604160045260245ffd5b5f805f8060808587031215612264575f80fd5b61226d85611eea565b935061227b60208601611eea565b925060408501359150606085013567ffffffffffffffff8082111561229e575f80fd5b818701915087601f8301126122b1575f80fd5b8135818111156122c3576122c361223d565b604051601f8201601f19908116603f011681019083821181831017156122eb576122eb61223d565b816040528281528a6020848701011115612303575f80fd5b826020860160208301375f60208483010152809550505050505092959194509250565b5f8060408385031215612337575f80fd5b61234083611eea565b91506120ee60208401611eea565b5f805f8060608587031215612361575f80fd5b8435935061237160208601611eea565b9250604085013567ffffffffffffffff81111561238c575f80fd5b61239887828801612010565b95989497509550505050565b600181811c908216806123b857607f821691505b6020821081036123d657634e487b7160e01b5f52602260045260245ffd5b50919050565b601f821115610c8557805f5260205f20601f840160051c810160208510156124015750805b601f840160051c820191505b81811015611a25575f815560010161240d565b67ffffffffffffffff8311156124385761243861223d565b61244c8361244683546123a4565b836123dc565b5f601f84116001811461247d575f85156124665750838201355b5f19600387901b1c1916600186901b178355611a25565b5f83815260208120601f198716915b828110156124ac578685013582556020948501946001909201910161248c565b50868210156124c8575f1960f88860031b161c19848701351681555b505060018560011b0183555050505050565b6020810161054f828461212c565b60208082526025908201527f52696d6f7761536f756c626f756e643a20746f6b656e20646f6573206e6f7420604082015264195e1a5cdd60da1b606082015260800190565b6040810161253b828561212c565b61161a602083018461212c565b815167ffffffffffffffff8111156125625761256261223d565b6125768161257084546123a4565b846123dc565b602080601f8311600181146125a9575f84156125925750858301515b5f19600386901b1c1916600185901b178555611a23565b5f85815260208120601f198616915b828110156125d7578886015182559484019460019091019084016125b8565b50858210156125f457878501515f19600388901b60f8161c191681555b5050505050600190811b01905550565b81835281816020850137505f828201602090810191909152601f909101601f19169091010190565b838152604060208201525f612645604083018486612604565b95945050505050565b5f83516020612661828560208901611e74565b81840191505f8554612672816123a4565b6001828116801561268a576001811461269f576126c9565b60ff19841687528215158302870194506126c9565b895f5260205f205f5b848110156126c1578154898201529083019087016126a8565b505082870194505b50929998505050505050505050565b60018060a01b0386168152846020820152608060408201525f6126ff608083018587612604565b905061270e606083018461212c565b9695505050505050565b5f60208284031215612728575f80fd5b5051919050565b6001600160a01b03858116825284166020820152604081018390526080606082018190525f9061270e90830184611e96565b5f60208284031215612771575f80fd5b815161161a81611e4456fe9f2df0fed2c77648de5860a4cc508cd0818c85b8b8a1ab4ceeef8d981c8956a6a264697066735822122026d082a926221469b8deab5deec572a4dc8027c7d0e438f3958bc00983d2d2c464736f6c63430008180033","linkReferences":{}},"methodIdentifiers":{"DEFAULT_ADMIN_ROLE()":"a217fddf","MINTER_ROLE()":"d5391393","PAUSER_ROLE()":"e63ab1e9","SAV_OPERATOR_ROLE()":"6cf1af08","approve(address,uint256)":"095ea7b3","balanceOf(address)":"70a08231","getApproved(uint256)":"081812fc","getRepairHistory(uint256)":"266e4572","getRoleAdmin(bytes32)":"248a9ca3","getSoulboundByPassport(uint256)":"cf80c409","getSoulboundData(uint256)":"4e54df1a","grantRole(bytes32,address)":"2f2ff15d","hasLifetimeWarranty(uint256)":"b585ffee","hasRole(bytes32,address)":"91d14854","isApprovedForAll(address,address)":"e985e9c5","locked(uint256)":"b45a3c0e","migrateSoulbound(uint256,address,string)":"fb75f8ce","mintSoulbound(address,uint256,string,uint8)":"26865318","name()":"06fdde03","ownerOf(uint256)":"6352211e","passportContract()":"ab9027b0","pause()":"8456cb59","paused()":"5c975abb","recordRepair(uint256,string,string)":"85283d40","renounceRole(bytes32,address)":"36568abe","revokeRole(bytes32,address)":"d547741f","safeTransferFrom(address,address,uint256)":"42842e0e","safeTransferFrom(address,address,uint256,bytes)":"b88d4fde","setApprovalForAll(address,bool)":"a22cb465","setPassportContract(address)":"0d39dda6","supportsInterface(bytes4)":"01ffc9a7","symbol()":"95d89b41","tokenURI(uint256)":"c87b56dd","transferFrom(address,address,uint256)":"23b872dd","unpause()":"3f4ba83a","upgradeTier(uint256,uint8)":"36f005aa"},"id":63}